{
  "contractName": "DaiLpPool",
  "abi": [
    {
      "inputs": [
        {
          "internalType": "contract IUniswapV2Pair",
          "name": "_debaseDaiPair",
          "type": "address"
        },
        {
          "internalType": "contract IERC20",
          "name": "_dai",
          "type": "address"
        },
        {
          "internalType": "contract IERC20",
          "name": "_debase",
          "type": "address"
        },
        {
          "internalType": "contract IERC20",
          "name": "_mph",
          "type": "address"
        },
        {
          "internalType": "address",
          "name": "_policy",
          "type": "address"
        },
        {
          "internalType": "contract IDInterest",
          "name": "_daiFixedPool",
          "type": "address"
        },
        {
          "internalType": "contract IReward",
          "name": "_mphStakePool",
          "type": "address"
        },
        {
          "internalType": "uint256",
          "name": "_lockPeriod",
          "type": "uint256"
        },
        {
          "internalType": "uint256",
          "name": "_fee",
          "type": "uint256"
        },
        {
          "internalType": "address",
          "name": "_devAddr",
          "type": "address"
        },
        {
          "internalType": "uint256",
          "name": "_debaseRewardPercentage",
          "type": "uint256"
        },
        {
          "internalType": "uint256",
          "name": "_blockDuration",
          "type": "uint256"
        }
      ],
      "stateMutability": "nonpayable",
      "type": "constructor"
    },
    {
      "anonymous": false,
      "inputs": [
        {
          "indexed": false,
          "internalType": "uint256",
          "name": "rewardIssued",
          "type": "uint256"
        },
        {
          "indexed": false,
          "internalType": "uint256",
          "name": "rewardsFinishBy",
          "type": "uint256"
        }
      ],
      "name": "LogDebaseRewardIssued",
      "type": "event"
    },
    {
      "anonymous": false,
      "inputs": [
        {
          "indexed": false,
          "internalType": "uint256",
          "name": "duration_",
          "type": "uint256"
        }
      ],
      "name": "LogSetBlockDuration",
      "type": "event"
    },
    {
      "anonymous": false,
      "inputs": [
        {
          "indexed": false,
          "internalType": "uint256",
          "name": "debaseRewardPercentage_",
          "type": "uint256"
        }
      ],
      "name": "LogSetDebaseRewardPercentage",
      "type": "event"
    },
    {
      "anonymous": false,
      "inputs": [
        {
          "indexed": false,
          "internalType": "bool",
          "name": "poolEnabled_",
          "type": "bool"
        }
      ],
      "name": "LogSetPoolEnabled",
      "type": "event"
    },
    {
      "anonymous": false,
      "inputs": [
        {
          "indexed": false,
          "internalType": "uint256",
          "name": "poolShareAdded_",
          "type": "uint256"
        },
        {
          "indexed": false,
          "internalType": "uint256",
          "name": "amount_",
          "type": "uint256"
        },
        {
          "indexed": false,
          "internalType": "uint256",
          "name": "rewardRate_",
          "type": "uint256"
        },
        {
          "indexed": false,
          "internalType": "uint256",
          "name": "periodFinish_",
          "type": "uint256"
        }
      ],
      "name": "LogStartNewDistribtionCycle",
      "type": "event"
    },
    {
      "anonymous": false,
      "inputs": [
        {
          "indexed": true,
          "internalType": "address",
          "name": "previousOwner",
          "type": "address"
        },
        {
          "indexed": true,
          "internalType": "address",
          "name": "newOwner",
          "type": "address"
        }
      ],
      "name": "OwnershipTransferred",
      "type": "event"
    },
    {
      "anonymous": false,
      "inputs": [
        {
          "indexed": true,
          "internalType": "address",
          "name": "user",
          "type": "address"
        },
        {
          "indexed": false,
          "internalType": "uint256",
          "name": "amount",
          "type": "uint256"
        },
        {
          "indexed": false,
          "internalType": "uint256",
          "name": "maturationTimestamp",
          "type": "uint256"
        },
        {
          "indexed": false,
          "internalType": "uint256",
          "name": "depositId",
          "type": "uint256"
        }
      ],
      "name": "onDeposit",
      "type": "event"
    },
    {
      "anonymous": false,
      "inputs": [
        {
          "indexed": true,
          "internalType": "address",
          "name": "user",
          "type": "address"
        },
        {
          "indexed": false,
          "internalType": "uint256",
          "name": "amount",
          "type": "uint256"
        },
        {
          "indexed": false,
          "internalType": "uint256",
          "name": "depositId",
          "type": "uint256"
        }
      ],
      "name": "onEmergencyWithdraw",
      "type": "event"
    },
    {
      "anonymous": false,
      "inputs": [
        {
          "indexed": true,
          "internalType": "address",
          "name": "user",
          "type": "address"
        },
        {
          "indexed": false,
          "internalType": "uint256",
          "name": "amount",
          "type": "uint256"
        },
        {
          "indexed": false,
          "internalType": "uint256",
          "name": "depositId",
          "type": "uint256"
        }
      ],
      "name": "onWithdraw",
      "type": "event"
    },
    {
      "inputs": [],
      "name": "accDaiPerMph",
      "outputs": [
        {
          "internalType": "uint256",
          "name": "",
          "type": "uint256"
        }
      ],
      "stateMutability": "view",
      "type": "function"
    },
    {
      "inputs": [],
      "name": "allowEmergencyWithdraw",
      "outputs": [
        {
          "internalType": "bool",
          "name": "",
          "type": "bool"
        }
      ],
      "stateMutability": "view",
      "type": "function"
    },
    {
      "inputs": [],
      "name": "blockDuration",
      "outputs": [
        {
          "internalType": "uint256",
          "name": "",
          "type": "uint256"
        }
      ],
      "stateMutability": "view",
      "type": "function"
    },
    {
      "inputs": [],
      "name": "dai",
      "outputs": [
        {
          "internalType": "contract IERC20",
          "name": "",
          "type": "address"
        }
      ],
      "stateMutability": "view",
      "type": "function"
    },
    {
      "inputs": [],
      "name": "daiFixedPool",
      "outputs": [
        {
          "internalType": "contract IDInterest",
          "name": "",
          "type": "address"
        }
      ],
      "stateMutability": "view",
      "type": "function"
    },
    {
      "inputs": [],
      "name": "debase",
      "outputs": [
        {
          "internalType": "contract IERC20",
          "name": "",
          "type": "address"
        }
      ],
      "stateMutability": "view",
      "type": "function"
    },
    {
      "inputs": [],
      "name": "debaseDaiPair",
      "outputs": [
        {
          "internalType": "contract IUniswapV2Pair",
          "name": "",
          "type": "address"
        }
      ],
      "stateMutability": "view",
      "type": "function"
    },
    {
      "inputs": [],
      "name": "debaseRewardDistributed",
      "outputs": [
        {
          "internalType": "uint256",
          "name": "",
          "type": "uint256"
        }
      ],
      "stateMutability": "view",
      "type": "function"
    },
    {
      "inputs": [],
      "name": "debaseRewardPerTokenStored",
      "outputs": [
        {
          "internalType": "uint256",
          "name": "",
          "type": "uint256"
        }
      ],
      "stateMutability": "view",
      "type": "function"
    },
    {
      "inputs": [],
      "name": "debaseRewardPercentage",
      "outputs": [
        {
          "internalType": "uint256",
          "name": "",
          "type": "uint256"
        }
      ],
      "stateMutability": "view",
      "type": "function"
    },
    {
      "inputs": [],
      "name": "debaseRewardRate",
      "outputs": [
        {
          "internalType": "uint256",
          "name": "",
          "type": "uint256"
        }
      ],
      "stateMutability": "view",
      "type": "function"
    },
    {
      "inputs": [
        {
          "internalType": "uint256",
          "name": "",
          "type": "uint256"
        }
      ],
      "name": "deposits",
      "outputs": [
        {
          "internalType": "address",
          "name": "owner",
          "type": "address"
        },
        {
          "internalType": "uint256",
          "name": "amount",
          "type": "uint256"
        },
        {
          "internalType": "uint256",
          "name": "daiAmount",
          "type": "uint256"
        },
        {
          "internalType": "uint256",
          "name": "debaseGonAmount",
          "type": "uint256"
        },
        {
          "internalType": "uint256",
          "name": "debaseReward",
          "type": "uint256"
        },
        {
          "internalType": "uint256",
          "name": "debaseRewardPerTokenPaid",
          "type": "uint256"
        },
        {
          "internalType": "uint256",
          "name": "daiDepositId",
          "type": "uint256"
        },
        {
          "internalType": "uint256",
          "name": "mphReward",
          "type": "uint256"
        },
        {
          "internalType": "uint256",
          "name": "maturationTimestamp",
          "type": "uint256"
        },
        {
          "internalType": "bool",
          "name": "withdrawed",
          "type": "bool"
        }
      ],
      "stateMutability": "view",
      "type": "function"
    },
    {
      "inputs": [],
      "name": "lastUpdateBlock",
      "outputs": [
        {
          "internalType": "uint256",
          "name": "",
          "type": "uint256"
        }
      ],
      "stateMutability": "view",
      "type": "function"
    },
    {
      "inputs": [],
      "name": "lockPeriod",
      "outputs": [
        {
          "internalType": "uint256",
          "name": "",
          "type": "uint256"
        }
      ],
      "stateMutability": "view",
      "type": "function"
    },
    {
      "inputs": [
        {
          "internalType": "address",
          "name": "",
          "type": "address"
        }
      ],
      "name": "lpDeposits",
      "outputs": [
        {
          "internalType": "uint256",
          "name": "",
          "type": "uint256"
        }
      ],
      "stateMutability": "view",
      "type": "function"
    },
    {
      "inputs": [],
      "name": "lpLimit",
      "outputs": [
        {
          "internalType": "uint256",
          "name": "",
          "type": "uint256"
        }
      ],
      "stateMutability": "view",
      "type": "function"
    },
    {
      "inputs": [],
      "name": "maxDepositLimit",
      "outputs": [
        {
          "internalType": "uint256",
          "name": "",
          "type": "uint256"
        }
      ],
      "stateMutability": "view",
      "type": "function"
    },
    {
      "inputs": [],
      "name": "maxDepositLimitEnabled",
      "outputs": [
        {
          "internalType": "bool",
          "name": "",
          "type": "bool"
        }
      ],
      "stateMutability": "view",
      "type": "function"
    },
    {
      "inputs": [],
      "name": "mph",
      "outputs": [
        {
          "internalType": "contract IERC20",
          "name": "",
          "type": "address"
        }
      ],
      "stateMutability": "view",
      "type": "function"
    },
    {
      "inputs": [],
      "name": "mphStakePool",
      "outputs": [
        {
          "internalType": "contract IReward",
          "name": "",
          "type": "address"
        }
      ],
      "stateMutability": "view",
      "type": "function"
    },
    {
      "inputs": [],
      "name": "owner",
      "outputs": [
        {
          "internalType": "address",
          "name": "",
          "type": "address"
        }
      ],
      "stateMutability": "view",
      "type": "function"
    },
    {
      "inputs": [],
      "name": "periodFinish",
      "outputs": [
        {
          "internalType": "uint256",
          "name": "",
          "type": "uint256"
        }
      ],
      "stateMutability": "view",
      "type": "function"
    },
    {
      "inputs": [],
      "name": "policy",
      "outputs": [
        {
          "internalType": "address",
          "name": "",
          "type": "address"
        }
      ],
      "stateMutability": "view",
      "type": "function"
    },
    {
      "inputs": [],
      "name": "poolEnabled",
      "outputs": [
        {
          "internalType": "bool",
          "name": "",
          "type": "bool"
        }
      ],
      "stateMutability": "view",
      "type": "function"
    },
    {
      "inputs": [],
      "name": "renounceOwnership",
      "outputs": [],
      "stateMutability": "nonpayable",
      "type": "function"
    },
    {
      "inputs": [],
      "name": "totalLpLimit",
      "outputs": [
        {
          "internalType": "uint256",
          "name": "",
          "type": "uint256"
        }
      ],
      "stateMutability": "view",
      "type": "function"
    },
    {
      "inputs": [],
      "name": "totalLpLimitEnabled",
      "outputs": [
        {
          "internalType": "bool",
          "name": "",
          "type": "bool"
        }
      ],
      "stateMutability": "view",
      "type": "function"
    },
    {
      "inputs": [],
      "name": "totalLpLocked",
      "outputs": [
        {
          "internalType": "uint256",
          "name": "",
          "type": "uint256"
        }
      ],
      "stateMutability": "view",
      "type": "function"
    },
    {
      "inputs": [
        {
          "internalType": "address",
          "name": "newOwner",
          "type": "address"
        }
      ],
      "name": "transferOwnership",
      "outputs": [],
      "stateMutability": "nonpayable",
      "type": "function"
    },
    {
      "inputs": [
        {
          "internalType": "uint256",
          "name": "amount",
          "type": "uint256"
        }
      ],
      "name": "deposit",
      "outputs": [
        {
          "internalType": "uint256",
          "name": "",
          "type": "uint256"
        }
      ],
      "stateMutability": "nonpayable",
      "type": "function"
    },
    {
      "inputs": [
        {
          "internalType": "uint256",
          "name": "depositId",
          "type": "uint256"
        },
        {
          "internalType": "uint256",
          "name": "fundingId",
          "type": "uint256"
        }
      ],
      "name": "withdraw",
      "outputs": [],
      "stateMutability": "nonpayable",
      "type": "function"
    },
    {
      "inputs": [
        {
          "internalType": "uint256[]",
          "name": "depositIds",
          "type": "uint256[]"
        },
        {
          "internalType": "uint256[]",
          "name": "fundingIds",
          "type": "uint256[]"
        }
      ],
      "name": "multiWithdraw",
      "outputs": [],
      "stateMutability": "nonpayable",
      "type": "function"
    },
    {
      "inputs": [
        {
          "internalType": "uint256",
          "name": "depositId",
          "type": "uint256"
        },
        {
          "internalType": "uint256",
          "name": "fundingId",
          "type": "uint256"
        }
      ],
      "name": "emergencyWithdraw",
      "outputs": [],
      "stateMutability": "nonpayable",
      "type": "function"
    },
    {
      "inputs": [
        {
          "internalType": "uint256",
          "name": "debaseRewardPercentage_",
          "type": "uint256"
        }
      ],
      "name": "setRewardPercentage",
      "outputs": [],
      "stateMutability": "nonpayable",
      "type": "function"
    },
    {
      "inputs": [
        {
          "internalType": "uint256",
          "name": "blockDuration_",
          "type": "uint256"
        }
      ],
      "name": "setBlockDuration",
      "outputs": [],
      "stateMutability": "nonpayable",
      "type": "function"
    },
    {
      "inputs": [
        {
          "internalType": "bool",
          "name": "poolEnabled_",
          "type": "bool"
        }
      ],
      "name": "setPoolEnabled",
      "outputs": [],
      "stateMutability": "nonpayable",
      "type": "function"
    },
    {
      "inputs": [
        {
          "internalType": "uint256",
          "name": "_fee",
          "type": "uint256"
        }
      ],
      "name": "setFee",
      "outputs": [],
      "stateMutability": "nonpayable",
      "type": "function"
    },
    {
      "inputs": [
        {
          "internalType": "address",
          "name": "_devAddr",
          "type": "address"
        }
      ],
      "name": "setDevAddr",
      "outputs": [],
      "stateMutability": "nonpayable",
      "type": "function"
    },
    {
      "inputs": [
        {
          "internalType": "uint256",
          "name": "_lpLimit",
          "type": "uint256"
        }
      ],
      "name": "setLpLimit",
      "outputs": [],
      "stateMutability": "nonpayable",
      "type": "function"
    },
    {
      "inputs": [
        {
          "internalType": "uint256",
          "name": "_maxDepositLimit",
          "type": "uint256"
        }
      ],
      "name": "setMaxDepositLimit",
      "outputs": [],
      "stateMutability": "nonpayable",
      "type": "function"
    },
    {
      "inputs": [
        {
          "internalType": "uint256",
          "name": "_totalLpLimit",
          "type": "uint256"
        }
      ],
      "name": "setTotalLpLimit",
      "outputs": [],
      "stateMutability": "nonpayable",
      "type": "function"
    },
    {
      "inputs": [
        {
          "internalType": "bool",
          "name": "_totalLpLimitEnabled",
          "type": "bool"
        }
      ],
      "name": "setTotalLpLimitEnabled",
      "outputs": [],
      "stateMutability": "nonpayable",
      "type": "function"
    },
    {
      "inputs": [
        {
          "internalType": "bool",
          "name": "_maxDepositLimitEnabled",
          "type": "bool"
        }
      ],
      "name": "setMaxDepositLimitEnabled",
      "outputs": [],
      "stateMutability": "nonpayable",
      "type": "function"
    },
    {
      "inputs": [
        {
          "internalType": "uint256",
          "name": "_lockPeriod",
          "type": "uint256"
        }
      ],
      "name": "setLockPeriod",
      "outputs": [],
      "stateMutability": "nonpayable",
      "type": "function"
    },
    {
      "inputs": [
        {
          "internalType": "bool",
          "name": "_allowEmergencyWithdraw",
          "type": "bool"
        }
      ],
      "name": "setAllowEmergencyWithdraw",
      "outputs": [],
      "stateMutability": "nonpayable",
      "type": "function"
    },
    {
      "inputs": [],
      "name": "debaseRewardPerToken",
      "outputs": [
        {
          "internalType": "uint256",
          "name": "",
          "type": "uint256"
        }
      ],
      "stateMutability": "view",
      "type": "function"
    },
    {
      "inputs": [
        {
          "internalType": "uint256",
          "name": "depositId",
          "type": "uint256"
        }
      ],
      "name": "earned",
      "outputs": [
        {
          "internalType": "uint256",
          "name": "",
          "type": "uint256"
        }
      ],
      "stateMutability": "view",
      "type": "function"
    },
    {
      "inputs": [
        {
          "internalType": "int256",
          "name": "supplyDelta_",
          "type": "int256"
        },
        {
          "internalType": "int256",
          "name": "rebaseLag_",
          "type": "int256"
        },
        {
          "internalType": "uint256",
          "name": "exchangeRate_",
          "type": "uint256"
        },
        {
          "internalType": "uint256",
          "name": "debasePolicyBalance",
          "type": "uint256"
        }
      ],
      "name": "checkStabilizerAndGetReward",
      "outputs": [
        {
          "internalType": "uint256",
          "name": "rewardAmount_",
          "type": "uint256"
        }
      ],
      "stateMutability": "nonpayable",
      "type": "function"
    }
  ],
  "bytecode": "0x60806040523480156200001157600080fd5b5060405162005f3c38038062005f3c83398181016040526101808110156200003857600080fd5b810190808051906020019092919080519060200190929190805190602001909291908051906020019092919080519060200190929190805190602001909291908051906020019092919080519060200190929190805190602001909291908051906020019092919080519060200190929190805190602001909291905050506000620000c96200044160201b60201c565b9050806000806101000a81548173ffffffffffffffffffffffffffffffffffffffff021916908373ffffffffffffffffffffffffffffffffffffffff1602179055508073ffffffffffffffffffffffffffffffffffffffff16600073ffffffffffffffffffffffffffffffffffffffff167f8be0079c531659141344cd1fd0a4f28419497f9722a3daafe3b4186f6b6457e060405160405180910390a350600073ffffffffffffffffffffffffffffffffffffffff168373ffffffffffffffffffffffffffffffffffffffff1614156200020b576040517f08c379a000000000000000000000000000000000000000000000000000000000815260040180806020018281038252600c8152602001807f496e76616c69642061646472000000000000000000000000000000000000000081525060200191505060405180910390fd5b8b600160006101000a81548173ffffffffffffffffffffffffffffffffffffffff021916908373ffffffffffffffffffffffffffffffffffffffff1602179055508a600460006101000a81548173ffffffffffffffffffffffffffffffffffffffff021916908373ffffffffffffffffffffffffffffffffffffffff16021790555089600560006101000a81548173ffffffffffffffffffffffffffffffffffffffff021916908373ffffffffffffffffffffffffffffffffffffffff16021790555088600660006101000a81548173ffffffffffffffffffffffffffffffffffffffff021916908373ffffffffffffffffffffffffffffffffffffffff16021790555087600760006101000a81548173ffffffffffffffffffffffffffffffffffffffff021916908373ffffffffffffffffffffffffffffffffffffffff16021790555086600260006101000a81548173ffffffffffffffffffffffffffffffffffffffff021916908373ffffffffffffffffffffffffffffffffffffffff16021790555085600360006101000a81548173ffffffffffffffffffffffffffffffffffffffff021916908373ffffffffffffffffffffffffffffffffffffffff16021790555084600b819055508360128190555082601360006101000a81548173ffffffffffffffffffffffffffffffffffffffff021916908373ffffffffffffffffffffffffffffffffffffffff1602179055508160188190555080601b8190555050505050505050505050505062000449565b600033905090565b615ae380620004596000396000f3fe608060405234801561001057600080fd5b50600436106102a05760003560e01c806369fe0e2d11610167578063b02c43d0116100ce578063dfe6083511610087578063dfe6083514610bca578063ebe2b12b14610bf8578063f2ac00e514610c16578063f2fde38b14610c34578063f4b9fa7514610c78578063fd896c8814610cc2576102a0565b8063b02c43d014610a4b578063b63c44e714610afc578063b6b55f2514610b1a578063bcb31edc14610b5c578063be46aec614610b8a578063dfba8e7c14610bac576102a0565b80638798a9d2116101205780638798a9d2146108675780638847c82d146108c75780638da5cb5b146108f7578063995a419c14610941578063a218141b1461095f578063aea62e3f1461097d576102a0565b806369fe0e2d1461076d5780636ebb64a21461079b578063715018a6146107df578063779972da146107e95780637a784d2314610817578063838a14ca14610845576102a0565b8063441a3e701161020b57806357394d09116101c457806357394d091461063b57806359e1a699146106595780635b470e6e1461067b5780635d4c3224146106a95780636422380a146106d957806365616d0114610723576102a0565b8063441a3e70146104f95780634480085114610531578063460f6bb11461054f5780634d6ed8c41461059957806352058a7b146105db578063529f35e91461060b576102a0565b80632304aa611161025d5780632304aa61146103b3578063291a7f87146103fd57806335b25d171461045557806338dfa639146104735780633fd8b02f146104915780634083b910146104af576102a0565b80630505c8c9146102a557806309653674146102ef578063112f719d1461031d5780631a26af7a1461033b5780631f276b6e1461035d578063201e908e14610395575b600080fd5b6102ad610ce0565b604051808273ffffffffffffffffffffffffffffffffffffffff1673ffffffffffffffffffffffffffffffffffffffff16815260200191505060405180910390f35b61031b6004803603602081101561030557600080fd5b8101908080359060200190929190505050610d06565b005b610325610e12565b6040518082815260200191505060405180910390f35b610343610e18565b604051808215151515815260200191505060405180910390f35b6103936004803603604081101561037357600080fd5b810190808035906020019092919080359060200190929190505050610e2b565b005b61039d611254565b6040518082815260200191505060405180910390f35b6103bb61125a565b604051808273ffffffffffffffffffffffffffffffffffffffff1673ffffffffffffffffffffffffffffffffffffffff16815260200191505060405180910390f35b61043f6004803603602081101561041357600080fd5b81019080803573ffffffffffffffffffffffffffffffffffffffff169060200190929190505050611280565b6040518082815260200191505060405180910390f35b61045d611298565b6040518082815260200191505060405180910390f35b61047b61129e565b6040518082815260200191505060405180910390f35b6104996112a4565b6040518082815260200191505060405180910390f35b6104b76112aa565b604051808273ffffffffffffffffffffffffffffffffffffffff1673ffffffffffffffffffffffffffffffffffffffff16815260200191505060405180910390f35b61052f6004803603604081101561050f57600080fd5b8101908080359060200190929190803590602001909291905050506112d0565b005b6105396116f1565b6040518082815260200191505060405180910390f35b6105576116f7565b604051808273ffffffffffffffffffffffffffffffffffffffff1673ffffffffffffffffffffffffffffffffffffffff16815260200191505060405180910390f35b6105c5600480360360208110156105af57600080fd5b810190808035906020019092919050505061171d565b6040518082815260200191505060405180910390f35b610609600480360360208110156105f157600080fd5b81019080803515159060200190929190505050611837565b005b6106396004803603602081101561062157600080fd5b8101908080351515906020019092919050505061191d565b005b610643611a4d565b6040518082815260200191505060405180910390f35b610661611adb565b604051808215151515815260200191505060405180910390f35b6106a76004803603602081101561069157600080fd5b8101908080359060200190929190505050611aee565b005b6106d7600480360360208110156106bf57600080fd5b81019080803515159060200190929190505050611bc1565b005b6106e1611ca7565b604051808273ffffffffffffffffffffffffffffffffffffffff1673ffffffffffffffffffffffffffffffffffffffff16815260200191505060405180910390f35b61072b611ccd565b604051808273ffffffffffffffffffffffffffffffffffffffff1673ffffffffffffffffffffffffffffffffffffffff16815260200191505060405180910390f35b6107996004803603602081101561078357600080fd5b8101908080359060200190929190505050611cf3565b005b6107dd600480360360208110156107b157600080fd5b81019080803573ffffffffffffffffffffffffffffffffffffffff169060200190929190505050611dc6565b005b6107e7611f76565b005b610815600480360360208110156107ff57600080fd5b81019080803590602001909291905050506120fe565b005b6108436004803603602081101561082d57600080fd5b81019080803590602001909291905050506121d1565b005b61084d6122a4565b604051808215151515815260200191505060405180910390f35b6108b16004803603608081101561087d57600080fd5b81019080803590602001909291908035906020019092919080359060200190929190803590602001909291905050506122b7565b6040518082815260200191505060405180910390f35b6108f5600480360360208110156108dd57600080fd5b810190808035151590602001909291905050506123c4565b005b6108ff6124aa565b604051808273ffffffffffffffffffffffffffffffffffffffff1673ffffffffffffffffffffffffffffffffffffffff16815260200191505060405180910390f35b6109496124d3565b6040518082815260200191505060405180910390f35b6109676124d9565b6040518082815260200191505060405180910390f35b610a496004803603604081101561099357600080fd5b81019080803590602001906401000000008111156109b057600080fd5b8201836020820111156109c257600080fd5b803590602001918460208302840111640100000000831117156109e457600080fd5b909192939192939080359060200190640100000000811115610a0557600080fd5b820183602082011115610a1757600080fd5b80359060200191846020830284011164010000000083111715610a3957600080fd5b90919293919293905050506124df565b005b610a7760048036036020811015610a6157600080fd5b81019080803590602001909291905050506125ab565b604051808b73ffffffffffffffffffffffffffffffffffffffff1673ffffffffffffffffffffffffffffffffffffffff1681526020018a8152602001898152602001888152602001878152602001868152602001858152602001848152602001838152602001821515151581526020019a505050505050505050505060405180910390f35b610b0461262c565b6040518082815260200191505060405180910390f35b610b4660048036036020811015610b3057600080fd5b8101908080359060200190929190505050612632565b6040518082815260200191505060405180910390f35b610b8860048036036020811015610b7257600080fd5b8101908080359060200190929190505050612b42565b005b610b92612c5e565b604051808215151515815260200191505060405180910390f35b610bb4612c71565b6040518082815260200191505060405180910390f35b610bf660048036036020811015610be057600080fd5b8101908080359060200190929190505050612c77565b005b610c00612d4a565b6040518082815260200191505060405180910390f35b610c1e612d50565b6040518082815260200191505060405180910390f35b610c7660048036036020811015610c4a57600080fd5b81019080803573ffffffffffffffffffffffffffffffffffffffff169060200190929190505050612d56565b005b610c80612f63565b604051808273ffffffffffffffffffffffffffffffffffffffff1673ffffffffffffffffffffffffffffffffffffffff16815260200191505060405180910390f35b610cca612f89565b6040518082815260200191505060405180910390f35b600760009054906101000a900473ffffffffffffffffffffffffffffffffffffffff1681565b610d0e612f8f565b73ffffffffffffffffffffffffffffffffffffffff166000809054906101000a900473ffffffffffffffffffffffffffffffffffffffff1673ffffffffffffffffffffffffffffffffffffffff1614610dcf576040517f08c379a00000000000000000000000000000000000000000000000000000000081526004018080602001828103825260208152602001807f4f776e61626c653a2063616c6c6572206973206e6f7420746865206f776e657281525060200191505060405180910390fd5b806018819055507f28cf650dc6bbdd6a6fa3026f34132cba6ec966fa67dfd5fe58356839efb63be86018546040518082815260200191505060405180910390a150565b60175481565b601c60019054906101000a900460ff1681565b601c60009054906101000a900460ff16610ead576040517f08c379a00000000000000000000000000000000000000000000000000000000081526004018080602001828103825260128152602001807f506f6f6c2069736e277420656e61626c6564000000000000000000000000000081525060200191505060405180910390fd5b601c60019054906101000a900460ff16610f2f576040517f08c379a000000000000000000000000000000000000000000000000000000000815260040180806020018281038252601b8152602001807f656d657267656e63792077697468647261772064697361626c6564000000000081525060200191505060405180910390fd5b6011548210610fa6576040517f08c379a000000000000000000000000000000000000000000000000000000000815260040180806020018281038252600a8152602001807f6e6f206465706f7369740000000000000000000000000000000000000000000081525060200191505060405180910390fd5b6000600e600084815260200190815260200160002090503373ffffffffffffffffffffffffffffffffffffffff168160000160009054906101000a900473ffffffffffffffffffffffffffffffffffffffff1673ffffffffffffffffffffffffffffffffffffffff1614611082576040517f08c379a00000000000000000000000000000000000000000000000000000000081526004018080602001828103825260098152602001807f6e6f74206f776e6572000000000000000000000000000000000000000000000081525060200191505060405180910390fd5b600015158160090160009054906101000a900460ff1615151461110d576040517f08c379a00000000000000000000000000000000000000000000000000000000081526004018080602001828103825260128152602001807f7769746864726177656420616c7265616479000000000000000000000000000081525060200191505060405180910390fd5b6111178383612f97565b6111208361326e565b60018160090160006101000a81548160ff0219169083151502179055506111938160010154600f60003373ffffffffffffffffffffffffffffffffffffffff1673ffffffffffffffffffffffffffffffffffffffff168152602001908152602001600020546134be90919063ffffffff16565b600f60003373ffffffffffffffffffffffffffffffffffffffff1673ffffffffffffffffffffffffffffffffffffffff168152602001908152602001600020819055506111ef8160010154600d546134be90919063ffffffff16565b600d819055503373ffffffffffffffffffffffffffffffffffffffff167f5712bb005ae686d72a5551442c8cb306ec1f7fbbc1ae6e607207860ac017dc8a826001015485604051808381526020018281526020019250505060405180910390a2505050565b601b5481565b600660009054906101000a900473ffffffffffffffffffffffffffffffffffffffff1681565b600f6020528060005260406000206000915090505481565b60185481565b601a5481565b600b5481565b600360009054906101000a900473ffffffffffffffffffffffffffffffffffffffff1681565b601c60009054906101000a900460ff16611352576040517f08c379a00000000000000000000000000000000000000000000000000000000081526004018080602001828103825260128152602001807f506f6f6c2069736e277420656e61626c6564000000000000000000000000000081525060200191505060405180910390fd5b60115482106113c9576040517f08c379a000000000000000000000000000000000000000000000000000000000815260040180806020018281038252600a8152602001807f6e6f206465706f7369740000000000000000000000000000000000000000000081525060200191505060405180910390fd5b6000600e600084815260200190815260200160002090503373ffffffffffffffffffffffffffffffffffffffff168160000160009054906101000a900473ffffffffffffffffffffffffffffffffffffffff1673ffffffffffffffffffffffffffffffffffffffff16146114a5576040517f08c379a00000000000000000000000000000000000000000000000000000000081526004018080602001828103825260098152602001807f6e6f74206f776e6572000000000000000000000000000000000000000000000081525060200191505060405180910390fd5b600015158160090160009054906101000a900460ff16151514611530576040517f08c379a00000000000000000000000000000000000000000000000000000000081526004018080602001828103825260128152602001807f7769746864726177656420616c7265616479000000000000000000000000000081525060200191505060405180910390fd5b42816008015411156115aa576040517f08c379a000000000000000000000000000000000000000000000000000000000815260040180806020018281038252600c8152602001807f7374696c6c206c6f636b6564000000000000000000000000000000000000000081525060200191505060405180910390fd5b6115b48383613508565b6115bd83613e71565b60018160090160006101000a81548160ff0219169083151502179055506116308160010154600f60003373ffffffffffffffffffffffffffffffffffffffff1673ffffffffffffffffffffffffffffffffffffffff168152602001908152602001600020546134be90919063ffffffff16565b600f60003373ffffffffffffffffffffffffffffffffffffffff1673ffffffffffffffffffffffffffffffffffffffff1681526020019081526020016000208190555061168c8160010154600d546134be90919063ffffffff16565b600d819055503373ffffffffffffffffffffffffffffffffffffffff167f1b091269e929df55d64d6ea7e9cadbe4fb38dce5ccdc995767bc515030dbfbbf826001015485604051808381526020018281526020019250505060405180910390a2505050565b60195481565b600260009054906101000a900473ffffffffffffffffffffffffffffffffffffffff1681565b60006011548210611796576040517f08c379a000000000000000000000000000000000000000000000000000000000815260040180806020018281038252600a8152602001807f6e6f206465706f7369740000000000000000000000000000000000000000000081525060200191505060405180910390fd5b611830600e600084815260200190815260200160002060040154611822670de0b6b3a76400006118146117ef600e6000898152602001908152602001600020600501546117e1611a4d565b6134be90919063ffffffff16565b600e60008981526020019081526020016000206001015461406490919063ffffffff16565b6140ea90919063ffffffff16565b61413490919063ffffffff16565b9050919050565b61183f612f8f565b73ffffffffffffffffffffffffffffffffffffffff166000809054906101000a900473ffffffffffffffffffffffffffffffffffffffff1673ffffffffffffffffffffffffffffffffffffffff1614611900576040517f08c379a00000000000000000000000000000000000000000000000000000000081526004018080602001828103825260208152602001807f4f776e61626c653a2063616c6c6572206973206e6f7420746865206f776e657281525060200191505060405180910390fd5b80600c60016101000a81548160ff02191690831515021790555050565b611925612f8f565b73ffffffffffffffffffffffffffffffffffffffff166000809054906101000a900473ffffffffffffffffffffffffffffffffffffffff1673ffffffffffffffffffffffffffffffffffffffff16146119e6576040517f08c379a00000000000000000000000000000000000000000000000000000000081526004018080602001828103825260208152602001807f4f776e61626c653a2063616c6c6572206973206e6f7420746865206f776e657281525060200191505060405180910390fd5b80601c60006101000a81548160ff0219169083151502179055507f0fc5960ebe0d769d367a5952c3d384663054acd195413084d4c5e3a71c4a7d85601c60009054906101000a900460ff16604051808215151515815260200191505060405180910390a150565b600080600d541415611a63576017549050611ad8565b611ad5611ac4600d54611ab6670de0b6b3a7640000611aa8601554611a9a601654611a8c6141bc565b6134be90919063ffffffff16565b61406490919063ffffffff16565b61406490919063ffffffff16565b6140ea90919063ffffffff16565b60175461413490919063ffffffff16565b90505b90565b600c60019054906101000a900460ff1681565b611af6612f8f565b73ffffffffffffffffffffffffffffffffffffffff166000809054906101000a900473ffffffffffffffffffffffffffffffffffffffff1673ffffffffffffffffffffffffffffffffffffffff1614611bb7576040517f08c379a00000000000000000000000000000000000000000000000000000000081526004018080602001828103825260208152602001807f4f776e61626c653a2063616c6c6572206973206e6f7420746865206f776e657281525060200191505060405180910390fd5b8060088190555050565b611bc9612f8f565b73ffffffffffffffffffffffffffffffffffffffff166000809054906101000a900473ffffffffffffffffffffffffffffffffffffffff1673ffffffffffffffffffffffffffffffffffffffff1614611c8a576040517f08c379a00000000000000000000000000000000000000000000000000000000081526004018080602001828103825260208152602001807f4f776e61626c653a2063616c6c6572206973206e6f7420746865206f776e657281525060200191505060405180910390fd5b80601c60016101000a81548160ff02191690831515021790555050565b600560009054906101000a900473ffffffffffffffffffffffffffffffffffffffff1681565b600160009054906101000a900473ffffffffffffffffffffffffffffffffffffffff1681565b611cfb612f8f565b73ffffffffffffffffffffffffffffffffffffffff166000809054906101000a900473ffffffffffffffffffffffffffffffffffffffff1673ffffffffffffffffffffffffffffffffffffffff1614611dbc576040517f08c379a00000000000000000000000000000000000000000000000000000000081526004018080602001828103825260208152602001807f4f776e61626c653a2063616c6c6572206973206e6f7420746865206f776e657281525060200191505060405180910390fd5b8060128190555050565b611dce612f8f565b73ffffffffffffffffffffffffffffffffffffffff166000809054906101000a900473ffffffffffffffffffffffffffffffffffffffff1673ffffffffffffffffffffffffffffffffffffffff1614611e8f576040517f08c379a00000000000000000000000000000000000000000000000000000000081526004018080602001828103825260208152602001807f4f776e61626c653a2063616c6c6572206973206e6f7420746865206f776e657281525060200191505060405180910390fd5b600073ffffffffffffffffffffffffffffffffffffffff168173ffffffffffffffffffffffffffffffffffffffff161415611f32576040517f08c379a000000000000000000000000000000000000000000000000000000000815260040180806020018281038252600c8152602001807f496e76616c69642061646472000000000000000000000000000000000000000081525060200191505060405180910390fd5b80601360006101000a81548173ffffffffffffffffffffffffffffffffffffffff021916908373ffffffffffffffffffffffffffffffffffffffff16021790555050565b611f7e612f8f565b73ffffffffffffffffffffffffffffffffffffffff166000809054906101000a900473ffffffffffffffffffffffffffffffffffffffff1673ffffffffffffffffffffffffffffffffffffffff161461203f576040517f08c379a00000000000000000000000000000000000000000000000000000000081526004018080602001828103825260208152602001807f4f776e61626c653a2063616c6c6572206973206e6f7420746865206f776e657281525060200191505060405180910390fd5b600073ffffffffffffffffffffffffffffffffffffffff166000809054906101000a900473ffffffffffffffffffffffffffffffffffffffff1673ffffffffffffffffffffffffffffffffffffffff167f8be0079c531659141344cd1fd0a4f28419497f9722a3daafe3b4186f6b6457e060405160405180910390a360008060006101000a81548173ffffffffffffffffffffffffffffffffffffffff021916908373ffffffffffffffffffffffffffffffffffffffff160217905550565b612106612f8f565b73ffffffffffffffffffffffffffffffffffffffff166000809054906101000a900473ffffffffffffffffffffffffffffffffffffffff1673ffffffffffffffffffffffffffffffffffffffff16146121c7576040517f08c379a00000000000000000000000000000000000000000000000000000000081526004018080602001828103825260208152602001807f4f776e61626c653a2063616c6c6572206973206e6f7420746865206f776e657281525060200191505060405180910390fd5b80600b8190555050565b6121d9612f8f565b73ffffffffffffffffffffffffffffffffffffffff166000809054906101000a900473ffffffffffffffffffffffffffffffffffffffff1673ffffffffffffffffffffffffffffffffffffffff161461229a576040517f08c379a00000000000000000000000000000000000000000000000000000000081526004018080602001828103825260208152602001807f4f776e61626c653a2063616c6c6572206973206e6f7420746865206f776e657281525060200191505060405180910390fd5b80600a8190555050565b600c60009054906101000a900460ff1681565b6000600760009054906101000a900473ffffffffffffffffffffffffffffffffffffffff1673ffffffffffffffffffffffffffffffffffffffff163373ffffffffffffffffffffffffffffffffffffffff161461235f576040517f08c379a0000000000000000000000000000000000000000000000000000000008152600401808060200182810382526029815260200180615a146029913960400191505060405180910390fd5b6014544311156123b757600061239a670de0b6b3a764000061238c6018548661406490919063ffffffff16565b6140ea90919063ffffffff16565b90508083106123b5576123ac816141cf565b809150506123bc565b505b600090505b949350505050565b6123cc612f8f565b73ffffffffffffffffffffffffffffffffffffffff166000809054906101000a900473ffffffffffffffffffffffffffffffffffffffff1673ffffffffffffffffffffffffffffffffffffffff161461248d576040517f08c379a00000000000000000000000000000000000000000000000000000000081526004018080602001828103825260208152602001807f4f776e61626c653a2063616c6c6572206973206e6f7420746865206f776e657281525060200191505060405180910390fd5b80600c60006101000a81548160ff02191690831515021790555050565b60008060009054906101000a900473ffffffffffffffffffffffffffffffffffffffff16905090565b60155481565b60165481565b81819050848490501461255a576040517f08c379a00000000000000000000000000000000000000000000000000000000081526004018080602001828103825260108152602001807f696e636f7272656374206c656e6774680000000000000000000000000000000081525060200191505060405180910390fd5b60008090505b848490508110156125a45761259985858381811061257a57fe5b9050602002013584848481811061258d57fe5b905060200201356112d0565b600181019050612560565b5050505050565b600e6020528060005260406000206000915090508060000160009054906101000a900473ffffffffffffffffffffffffffffffffffffffff16908060010154908060020154908060030154908060040154908060050154908060060154908060070154908060080154908060090160009054906101000a900460ff1690508a565b60095481565b6000601c60009054906101000a900460ff166126b6576040517f08c379a00000000000000000000000000000000000000000000000000000000081526004018080602001828103825260128152602001807f506f6f6c2069736e277420656e61626c6564000000000000000000000000000081525060200191505060405180910390fd5b60001515600c60009054906101000a900460ff16151514806126ee5750600a546126eb83600d5461413490919063ffffffff16565b11155b612760576040517f08c379a00000000000000000000000000000000000000000000000000000000081526004018080602001828103825260118152602001807f546f206d756368206c70206c6f636b656400000000000000000000000000000081525060200191505060405180910390fd5b60001515600c60019054906101000a900460ff16151514806127d557506009546127d283600f60003373ffffffffffffffffffffffffffffffffffffffff1673ffffffffffffffffffffffffffffffffffffffff1681526020019081526020016000205461413490919063ffffffff16565b11155b612847576040517f08c379a000000000000000000000000000000000000000000000000000000000815260040180806020018281038252601d8152602001807f746f206d756368206465706f73697420666f722074686973207573657200000081525060200191505060405180910390fd5b600080612853846143b1565b91509150600080600061286585614a66565b9250925092506128bd87600f60003373ffffffffffffffffffffffffffffffffffffffff1673ffffffffffffffffffffffffffffffffffffffff1681526020019081526020016000205461413490919063ffffffff16565b600f60003373ffffffffffffffffffffffffffffffffffffffff1673ffffffffffffffffffffffffffffffffffffffff1681526020019081526020016000208190555061291587600d5461413490919063ffffffff16565b600d8190555061292483614d95565b601060006011548152602001908152602001600020819055506040518061014001604052803373ffffffffffffffffffffffffffffffffffffffff16815260200188815260200186815260200161298b61297c614e36565b8761406490919063ffffffff16565b8152602001600081526020016000815260200183815260200184815260200182815260200160001515815250600e6000601154815260200190815260200160002060008201518160000160006101000a81548173ffffffffffffffffffffffffffffffffffffffff021916908373ffffffffffffffffffffffffffffffffffffffff1602179055506020820151816001015560408201518160020155606082015181600301556080820151816004015560a0820151816005015560c0820151816006015560e0820151816007015561010082015181600801556101208201518160090160006101000a81548160ff021916908315150217905550905050612a9e600160115461413490919063ffffffff16565b601181905550612aad82614f0b565b3373ffffffffffffffffffffffffffffffffffffffff167fb49bb132260f6aa1c86e2d2a3957c097216e6ec9b5fa15867289f058b4d297ac8883612afd60016011546134be90919063ffffffff16565b60405180848152602001838152602001828152602001935050505060405180910390a2612b3660016011546134be90919063ffffffff16565b95505050505050919050565b612b4a612f8f565b73ffffffffffffffffffffffffffffffffffffffff166000809054906101000a900473ffffffffffffffffffffffffffffffffffffffff1673ffffffffffffffffffffffffffffffffffffffff1614612c0b576040517f08c379a00000000000000000000000000000000000000000000000000000000081526004018080602001828103825260208152602001807f4f776e61626c653a2063616c6c6572206973206e6f7420746865206f776e657281525060200191505060405180910390fd5b6001601b541015612c1b57600080fd5b80601b819055507f3785ba91aa39d946a094688c634e4b7b8a68e01e6f8617958324a10990576591601b546040518082815260200191505060405180910390a150565b601c60009054906101000a900460ff1681565b600a5481565b612c7f612f8f565b73ffffffffffffffffffffffffffffffffffffffff166000809054906101000a900473ffffffffffffffffffffffffffffffffffffffff1673ffffffffffffffffffffffffffffffffffffffff1614612d40576040517f08c379a00000000000000000000000000000000000000000000000000000000081526004018080602001828103825260208152602001807f4f776e61626c653a2063616c6c6572206973206e6f7420746865206f776e657281525060200191505060405180910390fd5b8060098190555050565b60145481565b60085481565b612d5e612f8f565b73ffffffffffffffffffffffffffffffffffffffff166000809054906101000a900473ffffffffffffffffffffffffffffffffffffffff1673ffffffffffffffffffffffffffffffffffffffff1614612e1f576040517f08c379a00000000000000000000000000000000000000000000000000000000081526004018080602001828103825260208152602001807f4f776e61626c653a2063616c6c6572206973206e6f7420746865206f776e657281525060200191505060405180910390fd5b600073ffffffffffffffffffffffffffffffffffffffff168173ffffffffffffffffffffffffffffffffffffffff161415612ea5576040517f08c379a00000000000000000000000000000000000000000000000000000000081526004018080602001828103825260268152602001806159ee6026913960400191505060405180910390fd5b8073ffffffffffffffffffffffffffffffffffffffff166000809054906101000a900473ffffffffffffffffffffffffffffffffffffffff1673ffffffffffffffffffffffffffffffffffffffff167f8be0079c531659141344cd1fd0a4f28419497f9722a3daafe3b4186f6b6457e060405160405180910390a3806000806101000a81548173ffffffffffffffffffffffffffffffffffffffff021916908373ffffffffffffffffffffffffffffffffffffffff16021790555050565b600460009054906101000a900473ffffffffffffffffffffffffffffffffffffffff1681565b600d5481565b600033905090565b6000600e600084815260200190815260200160002090506000612fb984614f75565b9050600260009054906101000a900473ffffffffffffffffffffffffffffffffffffffff1673ffffffffffffffffffffffffffffffffffffffff16637aebdce68360060154856040518363ffffffff1660e01b81526004018083815260200182815260200192505050600060405180830381600087803b15801561303c57600080fd5b505af1158015613050573d6000803e3d6000fd5b50505050600460009054906101000a900473ffffffffffffffffffffffffffffffffffffffff1673ffffffffffffffffffffffffffffffffffffffff1663a9059cbb8360000160009054906101000a900473ffffffffffffffffffffffffffffffffffffffff1684600201546040518363ffffffff1660e01b8152600401808373ffffffffffffffffffffffffffffffffffffffff1673ffffffffffffffffffffffffffffffffffffffff16815260200182815260200192505050602060405180830381600087803b15801561312557600080fd5b505af1158015613139573d6000803e3d6000fd5b505050506040513d602081101561314f57600080fd5b810190808051906020019092919050505050600460009054906101000a900473ffffffffffffffffffffffffffffffffffffffff1673ffffffffffffffffffffffffffffffffffffffff1663a9059cbb601360009054906101000a900473ffffffffffffffffffffffffffffffffffffffff16836040518363ffffffff1660e01b8152600401808373ffffffffffffffffffffffffffffffffffffffff1673ffffffffffffffffffffffffffffffffffffffff16815260200182815260200192505050602060405180830381600087803b15801561322c57600080fd5b505af1158015613240573d6000803e3d6000fd5b505050506040513d602081101561325657600080fd5b81019080805190602001909291905050505050505050565b61327781614f0b565b60006132828261171d565b905060008111156134ba576000600e600084815260200190815260200160002060040181905550600061337a670de0b6b3a764000061336c84600560009054906101000a900473ffffffffffffffffffffffffffffffffffffffff1673ffffffffffffffffffffffffffffffffffffffff166318160ddd6040518163ffffffff1660e01b815260040160206040518083038186803b15801561332357600080fd5b505afa158015613337573d6000803e3d6000fd5b505050506040513d602081101561334d57600080fd5b810190808051906020019092919050505061406490919063ffffffff16565b6140ea90919063ffffffff16565b905061342e600e600085815260200190815260200160002060000160009054906101000a900473ffffffffffffffffffffffffffffffffffffffff166133e66133c1614e36565b600e6000888152602001908152602001600020600301546140ea90919063ffffffff16565b600560009054906101000a900473ffffffffffffffffffffffffffffffffffffffff1673ffffffffffffffffffffffffffffffffffffffff166150909092919063ffffffff16565b61349d601360009054906101000a900473ffffffffffffffffffffffffffffffffffffffff1682600560009054906101000a900473ffffffffffffffffffffffffffffffffffffffff1673ffffffffffffffffffffffffffffffffffffffff166150909092919063ffffffff16565b6134b28260195461413490919063ffffffff16565b601981905550505b5050565b600061350083836040518060400160405280601e81526020017f536166654d6174683a207375627472616374696f6e206f766572666c6f770000815250615148565b905092915050565b6000600e600084815260200190815260200160002090506000600460009054906101000a900473ffffffffffffffffffffffffffffffffffffffff1673ffffffffffffffffffffffffffffffffffffffff166370a08231306040518263ffffffff1660e01b8152600401808273ffffffffffffffffffffffffffffffffffffffff1673ffffffffffffffffffffffffffffffffffffffff16815260200191505060206040518083038186803b1580156135c057600080fd5b505afa1580156135d4573d6000803e3d6000fd5b505050506040513d60208110156135ea57600080fd5b81019080805190602001909291905050509050600061360885614f75565b90506000600660009054906101000a900473ffffffffffffffffffffffffffffffffffffffff1673ffffffffffffffffffffffffffffffffffffffff166370a08231306040518263ffffffff1660e01b8152600401808273ffffffffffffffffffffffffffffffffffffffff1673ffffffffffffffffffffffffffffffffffffffff16815260200191505060206040518083038186803b1580156136ab57600080fd5b505afa1580156136bf573d6000803e3d6000fd5b505050506040513d60208110156136d557600080fd5b81019080805190602001909291905050509050600260009054906101000a900473ffffffffffffffffffffffffffffffffffffffff1673ffffffffffffffffffffffffffffffffffffffff1663441a3e708560060154876040518363ffffffff1660e01b81526004018083815260200182815260200192505050600060405180830381600087803b15801561376957600080fd5b505af115801561377d573d6000803e3d6000fd5b505050506000600660009054906101000a900473ffffffffffffffffffffffffffffffffffffffff1673ffffffffffffffffffffffffffffffffffffffff166370a08231306040518263ffffffff1660e01b8152600401808273ffffffffffffffffffffffffffffffffffffffff1673ffffffffffffffffffffffffffffffffffffffff16815260200191505060206040518083038186803b15801561382257600080fd5b505afa158015613836573d6000803e3d6000fd5b505050506040513d602081101561384c57600080fd5b810190808051906020019092919050505090506000600460009054906101000a900473ffffffffffffffffffffffffffffffffffffffff1673ffffffffffffffffffffffffffffffffffffffff166370a08231306040518263ffffffff1660e01b8152600401808273ffffffffffffffffffffffffffffffffffffffff1673ffffffffffffffffffffffffffffffffffffffff16815260200191505060206040518083038186803b15801561390057600080fd5b505afa158015613914573d6000803e3d6000fd5b505050506040513d602081101561392a57600080fd5b81019080805190602001909291905050509050600061395286836134be90919063ffffffff16565b9050600061397f8860020154613971888561413490919063ffffffff16565b6134be90919063ffffffff16565b905060006139ac8661399e878c6007015461413490919063ffffffff16565b6134be90919063ffffffff16565b905060006139d96103e86139cb6012548661406490919063ffffffff16565b6140ea90919063ffffffff16565b90506000613a066103e86139f86012548661406490919063ffffffff16565b6140ea90919063ffffffff16565b9050600460009054906101000a900473ffffffffffffffffffffffffffffffffffffffff1673ffffffffffffffffffffffffffffffffffffffff1663a9059cbb8c60000160009054906101000a900473ffffffffffffffffffffffffffffffffffffffff16613a94613a8186896134be90919063ffffffff16565b8f6002015461413490919063ffffffff16565b6040518363ffffffff1660e01b8152600401808373ffffffffffffffffffffffffffffffffffffffff1673ffffffffffffffffffffffffffffffffffffffff16815260200182815260200192505050602060405180830381600087803b158015613afd57600080fd5b505af1158015613b11573d6000803e3d6000fd5b505050506040513d6020811015613b2757600080fd5b810190808051906020019092919050505050600660009054906101000a900473ffffffffffffffffffffffffffffffffffffffff1673ffffffffffffffffffffffffffffffffffffffff1663a9059cbb8c60000160009054906101000a900473ffffffffffffffffffffffffffffffffffffffff16613baf84876134be90919063ffffffff16565b6040518363ffffffff1660e01b8152600401808373ffffffffffffffffffffffffffffffffffffffff1673ffffffffffffffffffffffffffffffffffffffff16815260200182815260200192505050602060405180830381600087803b158015613c1857600080fd5b505af1158015613c2c573d6000803e3d6000fd5b505050506040513d6020811015613c4257600080fd5b810190808051906020019092919050505050600460009054906101000a900473ffffffffffffffffffffffffffffffffffffffff1673ffffffffffffffffffffffffffffffffffffffff1663a9059cbb601360009054906101000a900473ffffffffffffffffffffffffffffffffffffffff16846040518363ffffffff1660e01b8152600401808373ffffffffffffffffffffffffffffffffffffffff1673ffffffffffffffffffffffffffffffffffffffff16815260200182815260200192505050602060405180830381600087803b158015613d1f57600080fd5b505af1158015613d33573d6000803e3d6000fd5b505050506040513d6020811015613d4957600080fd5b810190808051906020019092919050505050600660009054906101000a900473ffffffffffffffffffffffffffffffffffffffff1673ffffffffffffffffffffffffffffffffffffffff1663a9059cbb601360009054906101000a900473ffffffffffffffffffffffffffffffffffffffff16836040518363ffffffff1660e01b8152600401808373ffffffffffffffffffffffffffffffffffffffff1673ffffffffffffffffffffffffffffffffffffffff16815260200182815260200192505050602060405180830381600087803b158015613e2657600080fd5b505af1158015613e3a573d6000803e3d6000fd5b505050506040513d6020811015613e5057600080fd5b81019080805190602001909291905050505050505050505050505050505050565b613e7a81614f0b565b6000613e858261171d565b90506000811115614060576000600e6000848152602001908152602001600020600401819055506000613f7d670de0b6b3a7640000613f6f84600560009054906101000a900473ffffffffffffffffffffffffffffffffffffffff1673ffffffffffffffffffffffffffffffffffffffff166318160ddd6040518163ffffffff1660e01b815260040160206040518083038186803b158015613f2657600080fd5b505afa158015613f3a573d6000803e3d6000fd5b505050506040513d6020811015613f5057600080fd5b810190808051906020019092919050505061406490919063ffffffff16565b6140ea90919063ffffffff16565b9050614043600e600085815260200190815260200160002060000160009054906101000a900473ffffffffffffffffffffffffffffffffffffffff16613ffb613fec613fc7614e36565b600e6000898152602001908152602001600020600301546140ea90919063ffffffff16565b8461413490919063ffffffff16565b600560009054906101000a900473ffffffffffffffffffffffffffffffffffffffff1673ffffffffffffffffffffffffffffffffffffffff166150909092919063ffffffff16565b6140588260195461413490919063ffffffff16565b601981905550505b5050565b60008083141561407757600090506140e4565b600082840290508284828161408857fe5b04146140df576040517f08c379a0000000000000000000000000000000000000000000000000000000008152600401808060200182810382526021815260200180615a636021913960400191505060405180910390fd5b809150505b92915050565b600061412c83836040518060400160405280601a81526020017f536166654d6174683a206469766973696f6e206279207a65726f000000000000815250615208565b905092915050565b6000808284019050838110156141b2576040517f08c379a000000000000000000000000000000000000000000000000000000000815260040180806020018281038252601b8152602001807f536166654d6174683a206164646974696f6e206f766572666c6f77000000000081525060200191505060405180910390fd5b8091505092915050565b60006141ca436014546152ce565b905090565b6141da601154614f0b565b60006142ab600560009054906101000a900473ffffffffffffffffffffffffffffffffffffffff1673ffffffffffffffffffffffffffffffffffffffff166318160ddd6040518163ffffffff1660e01b815260040160206040518083038186803b15801561424757600080fd5b505afa15801561425b573d6000803e3d6000fd5b505050506040513d602081101561427157600080fd5b810190808051906020019092919050505061429d670de0b6b3a76400008561406490919063ffffffff16565b6140ea90919063ffffffff16565b905060145443106142d6576142cb601b54826140ea90919063ffffffff16565b601581905550614338565b60006142ed436014546134be90919063ffffffff16565b905060006143066015548361406490919063ffffffff16565b905061432f601b54614321838661413490919063ffffffff16565b6140ea90919063ffffffff16565b60158190555050505b43601681905550614354601b544361413490919063ffffffff16565b6014819055507fcd8cc848595519a86dd1d1b2a306fe80c70459f3f6f2a87b08fe223e00cb9fee81836015546014546040518085815260200184815260200183815260200182815260200194505050505060405180910390a15050565b600080600160009054906101000a900473ffffffffffffffffffffffffffffffffffffffff1673ffffffffffffffffffffffffffffffffffffffff166323b872dd3330866040518463ffffffff1660e01b8152600401808473ffffffffffffffffffffffffffffffffffffffff1673ffffffffffffffffffffffffffffffffffffffff1681526020018373ffffffffffffffffffffffffffffffffffffffff1673ffffffffffffffffffffffffffffffffffffffff1681526020018281526020019350505050602060405180830381600087803b15801561449157600080fd5b505af11580156144a5573d6000803e3d6000fd5b505050506040513d60208110156144bb57600080fd5b8101908080519060200190929190505050506000600460009054906101000a900473ffffffffffffffffffffffffffffffffffffffff1673ffffffffffffffffffffffffffffffffffffffff166370a08231306040518263ffffffff1660e01b8152600401808273ffffffffffffffffffffffffffffffffffffffff1673ffffffffffffffffffffffffffffffffffffffff16815260200191505060206040518083038186803b15801561456e57600080fd5b505afa158015614582573d6000803e3d6000fd5b505050506040513d602081101561459857600080fd5b810190808051906020019092919050505090506000600560009054906101000a900473ffffffffffffffffffffffffffffffffffffffff1673ffffffffffffffffffffffffffffffffffffffff166370a08231306040518263ffffffff1660e01b8152600401808273ffffffffffffffffffffffffffffffffffffffff1673ffffffffffffffffffffffffffffffffffffffff16815260200191505060206040518083038186803b15801561464c57600080fd5b505afa158015614660573d6000803e3d6000fd5b505050506040513d602081101561467657600080fd5b81019080805190602001909291905050509050600160009054906101000a900473ffffffffffffffffffffffffffffffffffffffff1673ffffffffffffffffffffffffffffffffffffffff1663a9059cbb600160009054906101000a900473ffffffffffffffffffffffffffffffffffffffff16876040518363ffffffff1660e01b8152600401808373ffffffffffffffffffffffffffffffffffffffff1673ffffffffffffffffffffffffffffffffffffffff16815260200182815260200192505050602060405180830381600087803b15801561475457600080fd5b505af1158015614768573d6000803e3d6000fd5b505050506040513d602081101561477e57600080fd5b810190808051906020019092919050505050600160009054906101000a900473ffffffffffffffffffffffffffffffffffffffff1673ffffffffffffffffffffffffffffffffffffffff166389afcb44306040518263ffffffff1660e01b8152600401808273ffffffffffffffffffffffffffffffffffffffff1673ffffffffffffffffffffffffffffffffffffffff1681526020019150506040805180830381600087803b15801561483057600080fd5b505af1158015614844573d6000803e3d6000fd5b505050506040513d604081101561485a57600080fd5b81019080805190602001909291908051906020019092919050505050506000600460009054906101000a900473ffffffffffffffffffffffffffffffffffffffff1673ffffffffffffffffffffffffffffffffffffffff166370a08231306040518263ffffffff1660e01b8152600401808273ffffffffffffffffffffffffffffffffffffffff1673ffffffffffffffffffffffffffffffffffffffff16815260200191505060206040518083038186803b15801561491857600080fd5b505afa15801561492c573d6000803e3d6000fd5b505050506040513d602081101561494257600080fd5b810190808051906020019092919050505090506000600560009054906101000a900473ffffffffffffffffffffffffffffffffffffffff1673ffffffffffffffffffffffffffffffffffffffff166370a08231306040518263ffffffff1660e01b8152600401808273ffffffffffffffffffffffffffffffffffffffff1673ffffffffffffffffffffffffffffffffffffffff16815260200191505060206040518083038186803b1580156149f657600080fd5b505afa158015614a0a573d6000803e3d6000fd5b505050506040513d6020811015614a2057600080fd5b81019080805190602001909291905050509050614a4684836134be90919063ffffffff16565b9550614a5b83826134be90919063ffffffff16565b945050505050915091565b600080600080600660009054906101000a900473ffffffffffffffffffffffffffffffffffffffff1673ffffffffffffffffffffffffffffffffffffffff166370a08231306040518263ffffffff1660e01b8152600401808273ffffffffffffffffffffffffffffffffffffffff1673ffffffffffffffffffffffffffffffffffffffff16815260200191505060206040518083038186803b158015614b0b57600080fd5b505afa158015614b1f573d6000803e3d6000fd5b505050506040513d6020811015614b3557600080fd5b81019080805190602001909291905050509050614b5d600b544261413490919063ffffffff16565b9150600260009054906101000a900473ffffffffffffffffffffffffffffffffffffffff1673ffffffffffffffffffffffffffffffffffffffff1663e2bbb15886846040518363ffffffff1660e01b81526004018083815260200182815260200192505050600060405180830381600087803b158015614bdc57600080fd5b505af1158015614bf0573d6000803e3d6000fd5b50505050600260009054906101000a900473ffffffffffffffffffffffffffffffffffffffff1673ffffffffffffffffffffffffffffffffffffffff1663f154240a6040518163ffffffff1660e01b815260040160206040518083038186803b158015614c5c57600080fd5b505afa158015614c70573d6000803e3d6000fd5b505050506040513d6020811015614c8657600080fd5b810190808051906020019092919050505092506000600660009054906101000a900473ffffffffffffffffffffffffffffffffffffffff1673ffffffffffffffffffffffffffffffffffffffff166370a08231306040518263ffffffff1660e01b8152600401808273ffffffffffffffffffffffffffffffffffffffff1673ffffffffffffffffffffffffffffffffffffffff16815260200191505060206040518083038186803b158015614d3a57600080fd5b505afa158015614d4e573d6000803e3d6000fd5b505050506040513d6020811015614d6457600080fd5b81019080805190602001909291905050509050614d8a82826134be90919063ffffffff16565b945050509193909250565b6000601a549050614da46152e7565b600360009054906101000a900473ffffffffffffffffffffffffffffffffffffffff1673ffffffffffffffffffffffffffffffffffffffff1663a694fc3a836040518263ffffffff1660e01b815260040180828152602001915050600060405180830381600087803b158015614e1957600080fd5b505af1158015614e2d573d6000803e3d6000fd5b50505050919050565b6000614f06600560009054906101000a900473ffffffffffffffffffffffffffffffffffffffff1673ffffffffffffffffffffffffffffffffffffffff166318160ddd6040518163ffffffff1660e01b815260040160206040518083038186803b158015614ea357600080fd5b505afa158015614eb7573d6000803e3d6000fd5b505050506040513d6020811015614ecd57600080fd5b810190808051906020019092919050505069d3c21bcecceda100000060001981614ef357fe5b06600019036140ea90919063ffffffff16565b905090565b614f13611a4d565b601781905550614f216141bc565b601681905550601154811015614f7257614f3a8161171d565b600e600083815260200190815260200160002060040181905550601754600e6000838152602001908152602001600020600501819055505b50565b6000614f7f6152e7565b614fe664e8d4a51000614fd8600e600086815260200190815260200160002060070154614fca6010600088815260200190815260200160002054601a546134be90919063ffffffff16565b61406490919063ffffffff16565b6140ea90919063ffffffff16565b9050600360009054906101000a900473ffffffffffffffffffffffffffffffffffffffff1673ffffffffffffffffffffffffffffffffffffffff16632e1a7d4d600e6000858152602001908152602001600020600701546040518263ffffffff1660e01b815260040180828152602001915050600060405180830381600087803b15801561507357600080fd5b505af1158015615087573d6000803e3d6000fd5b50505050919050565b6151438363a9059cbb60e01b8484604051602401808373ffffffffffffffffffffffffffffffffffffffff1673ffffffffffffffffffffffffffffffffffffffff16815260200182815260200192505050604051602081830303815290604052907bffffffffffffffffffffffffffffffffffffffffffffffffffffffff19166020820180517bffffffffffffffffffffffffffffffffffffffffffffffffffffffff838183161783525050505061565e565b505050565b60008383111582906151f5576040517f08c379a00000000000000000000000000000000000000000000000000000000081526004018080602001828103825283818151815260200191508051906020019080838360005b838110156151ba57808201518184015260208101905061519f565b50505050905090810190601f1680156151e75780820380516001836020036101000a031916815260200191505b509250505060405180910390fd5b5060008385039050809150509392505050565b600080831182906152b4576040517f08c379a00000000000000000000000000000000000000000000000000000000081526004018080602001828103825283818151815260200191508051906020019080838360005b8381101561527957808201518184015260208101905061525e565b50505050905090810190601f1680156152a65780820380516001836020036101000a031916815260200191505b509250505060405180910390fd5b5060008385816152c057fe5b049050809150509392505050565b60008183106152dd57816152df565b825b905092915050565b6000600460009054906101000a900473ffffffffffffffffffffffffffffffffffffffff1673ffffffffffffffffffffffffffffffffffffffff166370a08231306040518263ffffffff1660e01b8152600401808273ffffffffffffffffffffffffffffffffffffffff1673ffffffffffffffffffffffffffffffffffffffff16815260200191505060206040518083038186803b15801561538857600080fd5b505afa15801561539c573d6000803e3d6000fd5b505050506040513d60208110156153b257600080fd5b81019080805190602001909291905050509050600360009054906101000a900473ffffffffffffffffffffffffffffffffffffffff1673ffffffffffffffffffffffffffffffffffffffff16633d18b9126040518163ffffffff1660e01b8152600401600060405180830381600087803b15801561542f57600080fd5b505af1158015615443573d6000803e3d6000fd5b505050506000600460009054906101000a900473ffffffffffffffffffffffffffffffffffffffff1673ffffffffffffffffffffffffffffffffffffffff166370a08231306040518263ffffffff1660e01b8152600401808273ffffffffffffffffffffffffffffffffffffffff1673ffffffffffffffffffffffffffffffffffffffff16815260200191505060206040518083038186803b1580156154e857600080fd5b505afa1580156154fc573d6000803e3d6000fd5b505050506040513d602081101561551257600080fd5b81019080805190602001909291905050509050600061553a83836134be90919063ffffffff16565b9050615653615642600360009054906101000a900473ffffffffffffffffffffffffffffffffffffffff1673ffffffffffffffffffffffffffffffffffffffff166370a08231306040518263ffffffff1660e01b8152600401808273ffffffffffffffffffffffffffffffffffffffff1673ffffffffffffffffffffffffffffffffffffffff16815260200191505060206040518083038186803b1580156155e157600080fd5b505afa1580156155f5573d6000803e3d6000fd5b505050506040513d602081101561560b57600080fd5b810190808051906020019092919050505061563464e8d4a510008561406490919063ffffffff16565b6140ea90919063ffffffff16565b601a5461413490919063ffffffff16565b601a81905550505050565b60606156c0826040518060400160405280602081526020017f5361666545524332303a206c6f772d6c6576656c2063616c6c206661696c65648152508573ffffffffffffffffffffffffffffffffffffffff1661574d9092919063ffffffff16565b9050600081511115615748578080602001905160208110156156e157600080fd5b8101908080519060200190929190505050615747576040517f08c379a000000000000000000000000000000000000000000000000000000000815260040180806020018281038252602a815260200180615a84602a913960400191505060405180910390fd5b5b505050565b606061575c8484600085615765565b90509392505050565b6060824710156157c0576040517f08c379a0000000000000000000000000000000000000000000000000000000008152600401808060200182810382526026815260200180615a3d6026913960400191505060405180910390fd5b6157c98561590e565b61583b576040517f08c379a000000000000000000000000000000000000000000000000000000000815260040180806020018281038252601d8152602001807f416464726573733a2063616c6c20746f206e6f6e2d636f6e747261637400000081525060200191505060405180910390fd5b600060608673ffffffffffffffffffffffffffffffffffffffff1685876040518082805190602001908083835b6020831061588b5780518252602082019150602081019050602083039250615868565b6001836020036101000a03801982511681845116808217855250505050505090500191505060006040518083038185875af1925050503d80600081146158ed576040519150601f19603f3d011682016040523d82523d6000602084013e6158f2565b606091505b5091509150615902828286615921565b92505050949350505050565b600080823b905060008111915050919050565b60608315615931578290506159e6565b6000835111156159445782518084602001fd5b816040517f08c379a00000000000000000000000000000000000000000000000000000000081526004018080602001828103825283818151815260200191508051906020019080838360005b838110156159ab578082015181840152602081019050615990565b50505050905090810190601f1680156159d85780820380516001836020036101000a031916815260200191505b509250505060405180910390fd5b939250505056fe4f776e61626c653a206e6577206f776e657220697320746865207a65726f20616464726573734f6e6c792064656261736520706f6c69637920636f6e74726163742063616e2063616c6c2074686973416464726573733a20696e73756666696369656e742062616c616e636520666f722063616c6c536166654d6174683a206d756c7469706c69636174696f6e206f766572666c6f775361666545524332303a204552433230206f7065726174696f6e20646964206e6f742073756363656564a2646970667358221220a7269edaf863135d192168ead9e3807e53e2358ba0c419d6f13f386fba232cfe64736f6c63430006060033",
  "immutableReferences": {},
  "source": "pragma solidity >=0.6.6;\n\nimport \"@openzeppelin/contracts/math/SafeMath.sol\";\nimport \"@openzeppelin/contracts/access/Ownable.sol\";\nimport \"@openzeppelin/contracts/math/Math.sol\";\nimport \"@openzeppelin/contracts/token/ERC20/IERC20.sol\";\nimport \"@openzeppelin/contracts/token/ERC20/SafeERC20.sol\";\nimport \"./interfaces/IUniswapV2Pair.sol\";\nimport \"./interfaces/IDInterest.sol\";\nimport \"./interfaces/IReward.sol\";\n\ncontract DaiLpPool is Ownable {\n    using SafeMath for uint256;\n    using SafeERC20 for IERC20;\n\n    event onDeposit(address indexed user, uint256 amount, uint256 maturationTimestamp, uint256 depositId);\n    event onWithdraw(address indexed user, uint256 amount, uint256 depositId);\n    event onEmergencyWithdraw(address indexed user, uint256 amount, uint256 depositId);\n\n    event LogSetDebaseRewardPercentage(uint256 debaseRewardPercentage_);\n    event LogDebaseRewardIssued(uint256 rewardIssued, uint256 rewardsFinishBy);\n    event LogSetBlockDuration(uint256 duration_);\n    event LogSetPoolEnabled(bool poolEnabled_);\n    event LogStartNewDistribtionCycle(\n        uint256 poolShareAdded_,\n        uint256 amount_,\n        uint256 rewardRate_,\n        uint256 periodFinish_\n    );\n\n    struct DepositInfo {\n        address owner;\n        uint256 amount;\n        uint256 daiAmount;\n        uint256 debaseGonAmount;\n        uint256 debaseReward;\n        uint256 debaseRewardPerTokenPaid;\n        uint256 daiDepositId;\n        uint256 mphReward;\n        uint256 maturationTimestamp;\n        bool withdrawed;\n    }\n\n    uint256 private constant MAX_UINT256 = ~uint256(0);\n    uint256 private constant INITIAL_FRAGMENTS_SUPPLY = 1000000 * 10**18;\n    uint256 private constant TOTAL_GONS = MAX_UINT256 - (MAX_UINT256 % INITIAL_FRAGMENTS_SUPPLY);\n\n    IUniswapV2Pair public debaseDaiPair;\n    IDInterest public daiFixedPool;\n    IReward public mphStakePool;\n    IERC20 public dai;\n    IERC20 public debase;\n    IERC20 public mph;\n    address public policy;\n\n    uint256 public lpLimit;\n    uint256 public maxDepositLimit;\n    uint256 public totalLpLimit;\n    uint256 public lockPeriod;\n    bool public totalLpLimitEnabled;\n    bool public maxDepositLimitEnabled;\n\n    uint256 public totalLpLocked;\n\n    mapping (uint256 => DepositInfo) public deposits;\n    mapping (address => uint256) public lpDeposits;\n    mapping (uint256 => uint256) oldAccDaiPerMphPerDeposit;\n    uint256 depositLength;\n    uint256 fee;\n    address devAddr;\n\n    uint256 public periodFinish;\n    uint256 public debaseRewardRate;\n    uint256 public lastUpdateBlock;\n    uint256 public debaseRewardPerTokenStored;\n    uint256 public debaseRewardPercentage;\n    uint256 public debaseRewardDistributed;\n    uint256 public accDaiPerMph;    // Accumulated DAI reward per staked mph, times 1e12. See below.\n\n    // params for debase reward\n    uint256 public blockDuration;\n    bool public poolEnabled;\n    bool public allowEmergencyWithdraw;\n\n    modifier enabled() {\n        require(poolEnabled, \"Pool isn't enabled\");\n        _;\n    }\n\n    function _updateDebaseReward(uint256 depositId) internal {\n        debaseRewardPerTokenStored = debaseRewardPerToken();\n        lastUpdateBlock = lastBlockRewardApplicable();\n        if (depositId < depositLength) {\n            deposits[depositId].debaseReward = earned(depositId);\n            deposits[depositId].debaseRewardPerTokenPaid = debaseRewardPerTokenStored;\n        }\n    }\n\n    constructor(\n        IUniswapV2Pair _debaseDaiPair,\n        IERC20 _dai,\n        IERC20 _debase,\n        IERC20 _mph,\n        address _policy,\n        IDInterest _daiFixedPool,\n        IReward _mphStakePool,\n        uint256 _lockPeriod,\n        uint256 _fee,\n        address _devAddr,\n        uint256 _debaseRewardPercentage,\n        uint256 _blockDuration\n    ) public Ownable() {\n        require (_devAddr != address(0), 'Invalid addr');\n        debaseDaiPair = _debaseDaiPair;\n        dai = _dai;\n        debase = _debase;\n        mph = _mph;\n        policy = _policy;\n        daiFixedPool = _daiFixedPool;\n        mphStakePool = _mphStakePool;\n        lockPeriod= _lockPeriod;\n        fee = _fee;\n        devAddr = _devAddr;\n        debaseRewardPercentage = _debaseRewardPercentage;\n        blockDuration = _blockDuration;\n    }\n\n    function _depositLpToken(uint256 amount) internal returns (uint256 daiAmount, uint256 debaseAmount) {\n        debaseDaiPair.transferFrom(msg.sender, address(this), amount);\n        uint daiOldBalance = dai.balanceOf(address(this));\n        uint debaseOldBalance = debase.balanceOf(address(this));\n        debaseDaiPair.transfer(address(debaseDaiPair), amount);\n        debaseDaiPair.burn(address(this));\n        uint daiBalance = dai.balanceOf(address(this));\n        uint debaseBalance = debase.balanceOf(address(this));\n\n        daiAmount = daiBalance.sub(daiOldBalance);\n        debaseAmount = debaseBalance.sub(debaseOldBalance);\n    }\n\n    function _depositDai(uint daiAmount) internal returns (uint256 mphReward, uint256 daiDepositId, uint256 maturationTimestamp) {\n        uint mphOldBalance = mph.balanceOf(address(this));\n        maturationTimestamp = block.timestamp.add(lockPeriod);\n        daiFixedPool.deposit(daiAmount, maturationTimestamp);\n        daiDepositId = daiFixedPool.depositsLength();\n        uint mphBalance = mph.balanceOf(address(this));\n        mphReward = mphBalance.sub(mphOldBalance);\n    }\n\n    function _updateMphReward() internal {\n        uint daiOldBalance = dai.balanceOf(address(this));\n        mphStakePool.getReward();\n        uint daiBalance = dai.balanceOf(address(this));\n        uint daiReward = daiBalance.sub(daiOldBalance);\n        accDaiPerMph = accDaiPerMph\n            .add(daiReward.mul(1e12)\n            .div(mphStakePool.balanceOf(address(this))));\n    }\n\n    function _stakeMph(uint mphReward) internal returns (uint oldAccDaiPerMph) {\n        oldAccDaiPerMph = accDaiPerMph;\n        _updateMphReward();\n        mphStakePool.stake(mphReward);\n    }\n\n    function _unstakeMph(uint depositId) internal returns (uint daiReward) {\n        _updateMphReward();\n        daiReward = accDaiPerMph\n            .sub(oldAccDaiPerMphPerDeposit[depositId])\n            .mul(deposits[depositId].mphReward)\n            .div(1e12);\n        mphStakePool.withdraw(deposits[depositId].mphReward);\n    }\n\n    function deposit(uint256 amount)\n        external\n        enabled\n        returns (uint256)\n    {\n        require(totalLpLimitEnabled == false || totalLpLocked.add(amount) <= totalLpLimit, 'To much lp locked');\n        require(maxDepositLimitEnabled == false || lpDeposits[msg.sender].add(amount) <= maxDepositLimit, 'to much deposit for this user');\n\n        (uint daiAmount, uint debaseAmount) = _depositLpToken(amount);\n        (uint mphReward, uint daiDepositId, uint maturationTimestamp) = _depositDai(daiAmount);\n\n        lpDeposits[msg.sender] = lpDeposits[msg.sender].add(amount);\n        totalLpLocked = totalLpLocked.add(amount);\n\n        oldAccDaiPerMphPerDeposit[depositLength] = _stakeMph(mphReward);\n\n        deposits[depositLength] = DepositInfo({\n            owner: msg.sender,\n            amount: amount,\n            daiAmount: daiAmount,\n            debaseGonAmount: debaseAmount.mul(_gonsPerFragment()),\n            debaseReward: 0,\n            debaseRewardPerTokenPaid: 0,\n            daiDepositId: daiDepositId,\n            maturationTimestamp: maturationTimestamp,\n            mphReward: mphReward,\n            withdrawed: false\n        });\n        depositLength = depositLength.add(1);\n\n        _updateDebaseReward(daiDepositId);\n        emit onDeposit(msg.sender, amount, maturationTimestamp, depositLength.sub(1));\n        return depositLength.sub(1);\n    }\n\n    function _gonsPerFragment() internal view returns (uint256) {\n        return TOTAL_GONS.div(debase.totalSupply());\n    }\n\n    function _withdrawDai(uint256 depositId, uint256 fundingId) internal {\n        DepositInfo storage depositInfo = deposits[depositId];\n\n        uint daiOldBalance = dai.balanceOf(address(this));\n        uint mphStakingDaiReward = _unstakeMph(depositId);\n\n        uint mphOldBalance = mph.balanceOf(address(this));\n        daiFixedPool.withdraw(depositInfo.daiDepositId, fundingId);\n        uint mphBalance = mph.balanceOf(address(this));\n\n        uint daiBalance = dai.balanceOf(address(this));\n        uint daiAmount = daiBalance.sub(daiOldBalance);\n        uint totalDaiReward = daiAmount.add(mphStakingDaiReward).sub(depositInfo.daiAmount);\n\n        uint mphReward = depositInfo.mphReward.add(mphBalance).sub(mphOldBalance);\n        uint daiFee = totalDaiReward.mul(fee).div(1000);\n        uint mphFee = mphReward.mul(fee).div(1000);\n\n        dai.transfer(depositInfo.owner, depositInfo.daiAmount.add(totalDaiReward.sub(daiFee)));\n        mph.transfer(depositInfo.owner, mphReward.sub(mphFee));\n\n        dai.transfer(devAddr, daiFee);\n        mph.transfer(devAddr, mphFee);\n    }\n\n    function _emergencyWithdrawDai(uint256 depositId, uint256 fundingId) internal {\n        DepositInfo storage depositInfo = deposits[depositId];\n\n        uint mphStakingDaiReward = _unstakeMph(depositId);\n        daiFixedPool.earlyWithdraw(depositInfo.daiDepositId, fundingId);\n        dai.transfer(depositInfo.owner, depositInfo.daiAmount);\n        dai.transfer(devAddr, mphStakingDaiReward);\n    }\n\n    function withdraw(uint256 depositId, uint256 fundingId)\n        public\n        enabled\n    {\n        require (depositId < depositLength, 'no deposit');\n        DepositInfo storage depositInfo = deposits[depositId];\n        require (depositInfo.owner == msg.sender, 'not owner');\n        require (depositInfo.withdrawed == false, 'withdrawed already');\n        require (depositInfo.maturationTimestamp <= block.timestamp, 'still locked');\n\n        _withdrawDai(depositId, fundingId);\n        _withdrawDebase(depositId);\n        depositInfo.withdrawed = true;\n        lpDeposits[msg.sender] = lpDeposits[msg.sender].sub(depositInfo.amount);\n        totalLpLocked = totalLpLocked.sub(depositInfo.amount);\n\n        emit onWithdraw(msg.sender, depositInfo.amount, depositId);\n    }\n\n    function multiWithdraw(uint256[] calldata depositIds, uint256[] calldata fundingIds) external {\n        require(depositIds.length == fundingIds.length, 'incorrect length');\n        for (uint256 i = 0; i < depositIds.length; i += 1) {\n            withdraw(depositIds[i], fundingIds[i]);\n        }\n    }\n\n    function emergencyWithdraw(uint256 depositId, uint256 fundingId) external enabled {\n        require(allowEmergencyWithdraw, 'emergency withdraw disabled');\n        require (depositId < depositLength, 'no deposit');\n        DepositInfo storage depositInfo = deposits[depositId];\n        require (depositInfo.owner == msg.sender, 'not owner');\n        require (depositInfo.withdrawed == false, 'withdrawed already');\n\n        _emergencyWithdrawDai(depositId, fundingId);\n        _emergencyWithdrawDebase(depositId);\n        depositInfo.withdrawed = true;\n        lpDeposits[msg.sender] = lpDeposits[msg.sender].sub(depositInfo.amount);\n        totalLpLocked = totalLpLocked.sub(depositInfo.amount);\n\n        emit onEmergencyWithdraw(msg.sender, depositInfo.amount, depositId);\n    }\n\n    /**\n     * @notice Function to set how much reward the stabilizer will request\n     */\n    function setRewardPercentage(uint256 debaseRewardPercentage_) external onlyOwner {\n        debaseRewardPercentage = debaseRewardPercentage_;\n        emit LogSetDebaseRewardPercentage(debaseRewardPercentage);\n    }\n\n    /**\n     * @notice Function to set reward drop period\n     */\n    function setBlockDuration(uint256 blockDuration_) external onlyOwner {\n        require(blockDuration >= 1);\n        blockDuration = blockDuration_;\n        emit LogSetBlockDuration(blockDuration);\n    }\n\n    /**\n     * @notice Function enabled or disable pool staking,withdraw\n     */\n    function setPoolEnabled(bool poolEnabled_) external onlyOwner {\n        poolEnabled = poolEnabled_;\n        emit LogSetPoolEnabled(poolEnabled);\n    }\n\n    function setFee(uint256 _fee) external onlyOwner {\n        fee = _fee;\n    }\n\n    function setDevAddr(address _devAddr) external onlyOwner {\n        require (_devAddr != address(0), 'Invalid addr');\n        devAddr = _devAddr;\n    }\n\n    function setLpLimit(uint256 _lpLimit) external onlyOwner {\n        lpLimit = _lpLimit;\n    }\n\n    function setMaxDepositLimit(uint256 _maxDepositLimit) external onlyOwner {\n        maxDepositLimit = _maxDepositLimit;\n    }\n\n    function setTotalLpLimit(uint256 _totalLpLimit) external onlyOwner {\n        totalLpLimit = _totalLpLimit;\n    }\n\n    function setTotalLpLimitEnabled(bool _totalLpLimitEnabled) external onlyOwner {\n        totalLpLimitEnabled = _totalLpLimitEnabled;\n    }\n\n    function setMaxDepositLimitEnabled(bool _maxDepositLimitEnabled) external onlyOwner {\n        maxDepositLimitEnabled = _maxDepositLimitEnabled;\n    }\n\n    function setLockPeriod(uint256 _lockPeriod) external onlyOwner {\n        lockPeriod = _lockPeriod;\n    }\n\n    function setAllowEmergencyWithdraw(bool _allowEmergencyWithdraw) external onlyOwner {\n        allowEmergencyWithdraw = _allowEmergencyWithdraw;\n    }\n\n    function lastBlockRewardApplicable() internal view returns (uint256) {\n        return Math.min(block.number, periodFinish);\n    }\n\n    function debaseRewardPerToken() public view returns (uint256) {\n        if (totalLpLocked == 0) {\n            return debaseRewardPerTokenStored;\n        }\n        return\n            debaseRewardPerTokenStored.add(\n                lastBlockRewardApplicable()\n                    .sub(lastUpdateBlock)\n                    .mul(debaseRewardRate)\n                    .mul(10**18)\n                    .div(totalLpLocked)\n            );\n    }\n\n    function earned(uint256 depositId) public view returns (uint256) {\n        require (depositId < depositLength, 'no deposit');\n        return\n            deposits[depositId].amount\n                .mul(debaseRewardPerToken().sub(deposits[depositId].debaseRewardPerTokenPaid))\n                .div(10**18)\n                .add(deposits[depositId].debaseReward);\n    }\n\n    function _withdrawDebase(uint256 depositId) internal {\n        _updateDebaseReward(depositId);\n        uint256 reward = earned(depositId);\n        if (reward > 0) {\n            deposits[depositId].debaseReward = 0;\n\n            uint256 rewardToClaim =\n                debase.totalSupply().mul(reward).div(10**18);\n\n            debase.safeTransfer(deposits[depositId].owner, rewardToClaim.add(deposits[depositId].debaseGonAmount.div(_gonsPerFragment())));\n            debaseRewardDistributed = debaseRewardDistributed.add(reward);\n        }\n    }\n\n    function _emergencyWithdrawDebase(uint256 depositId) internal {\n        _updateDebaseReward(depositId);\n        uint256 reward = earned(depositId);\n        if (reward > 0) {\n            deposits[depositId].debaseReward = 0;\n\n            uint256 rewardToClaim =\n                debase.totalSupply().mul(reward).div(10**18);\n\n            debase.safeTransfer(deposits[depositId].owner, deposits[depositId].debaseGonAmount.div(_gonsPerFragment()));\n            debase.safeTransfer(devAddr, rewardToClaim);\n            debaseRewardDistributed = debaseRewardDistributed.add(reward);\n        }\n    }\n\n    function checkStabilizerAndGetReward(\n        int256 supplyDelta_,\n        int256 rebaseLag_,\n        uint256 exchangeRate_,\n        uint256 debasePolicyBalance\n    ) external returns (uint256 rewardAmount_) {\n        require(\n            msg.sender == policy,\n            \"Only debase policy contract can call this\"\n        );\n\n        if (block.number > periodFinish) {\n            uint256 rewardToClaim =\n                debasePolicyBalance.mul(debaseRewardPercentage).div(10**18);\n\n            if (debasePolicyBalance >= rewardToClaim) {\n                startNewDistribtionCycle(rewardToClaim);\n                return rewardToClaim;\n            }\n        }\n        return 0;\n    }\n\n    function startNewDistribtionCycle(uint256 amount) internal\n    {\n        _updateDebaseReward(depositLength);\n        uint256 poolTotalShare = amount.mul(10**18).div(debase.totalSupply());\n\n        if (block.number >= periodFinish) {\n            debaseRewardRate = poolTotalShare.div(blockDuration);\n        } else {\n            uint256 remaining = periodFinish.sub(block.number);\n            uint256 leftover = remaining.mul(debaseRewardRate);\n            debaseRewardRate = poolTotalShare.add(leftover).div(blockDuration);\n        }\n        lastUpdateBlock = block.number;\n        periodFinish = block.number.add(blockDuration);\n\n        emit LogStartNewDistribtionCycle(\n            poolTotalShare,\n            amount,\n            debaseRewardRate,\n            periodFinish\n        );\n    }\n}\n",
  "sourcePath": "/Volumes/Work/Defi/Debase/debase-contracts/contracts/DaiLpPool.sol",
  "compiler": {
    "name": "solc",
    "version": "0.6.6+commit.6c089d02.Emscripten.clang"
  },
  "schemaVersion": "3.2.3",
  "updatedAt": "2021-01-04T13:40:01.556Z",
  "devdoc": {
    "methods": {
      "owner()": {
        "details": "Returns the address of the current owner."
      },
      "renounceOwnership()": {
        "details": "Leaves the contract without owner. It will not be possible to call `onlyOwner` functions anymore. Can only be called by the current owner.     * NOTE: Renouncing ownership will leave the contract without an owner, thereby removing any functionality that is only available to the owner."
      },
      "transferOwnership(address)": {
        "details": "Transfers ownership of the contract to a new account (`newOwner`). Can only be called by the current owner."
      }
    }
  },
  "userdoc": {
    "methods": {
      "setBlockDuration(uint256)": {
        "notice": "Function to set reward drop period"
      },
      "setPoolEnabled(bool)": {
        "notice": "Function enabled or disable pool staking,withdraw"
      },
      "setRewardPercentage(uint256)": {
        "notice": "Function to set how much reward the stabilizer will request"
      }
    }
  }
}