{
  "contractName": "DaiLpPool",
  "abi": [
    {
      "inputs": [
        {
          "internalType": "contract IUniswapV2Pair",
          "name": "_debaseDaiPair",
          "type": "address"
        },
        {
          "internalType": "contract IERC20",
          "name": "_dai",
          "type": "address"
        },
        {
          "internalType": "contract IERC20",
          "name": "_debase",
          "type": "address"
        },
        {
          "internalType": "contract IERC20",
          "name": "_mph",
          "type": "address"
        },
        {
          "internalType": "address",
          "name": "_policy",
          "type": "address"
        },
        {
          "internalType": "contract IDInterest",
          "name": "_daiFixedPool",
          "type": "address"
        },
        {
          "internalType": "contract IReward",
          "name": "_mphStakePool",
          "type": "address"
        },
        {
          "internalType": "contract IVesting",
          "name": "_mphVesting",
          "type": "address"
        },
        {
          "internalType": "uint256",
          "name": "_lockPeriod",
          "type": "uint256"
        },
        {
          "internalType": "uint256",
          "name": "_fee",
          "type": "uint256"
        },
        {
          "internalType": "address",
          "name": "_treasury",
          "type": "address"
        },
        {
          "internalType": "uint256",
          "name": "_debaseRewardPercentage",
          "type": "uint256"
        },
        {
          "internalType": "uint256",
          "name": "_blockDuration",
          "type": "uint256"
        }
      ],
      "stateMutability": "nonpayable",
      "type": "constructor"
    },
    {
      "anonymous": false,
      "inputs": [
        {
          "indexed": false,
          "internalType": "uint256",
          "name": "rewardIssued",
          "type": "uint256"
        },
        {
          "indexed": false,
          "internalType": "uint256",
          "name": "rewardsFinishBy",
          "type": "uint256"
        }
      ],
      "name": "LogDebaseRewardIssued",
      "type": "event"
    },
    {
      "anonymous": false,
      "inputs": [
        {
          "indexed": false,
          "internalType": "uint256",
          "name": "duration_",
          "type": "uint256"
        }
      ],
      "name": "LogSetBlockDuration",
      "type": "event"
    },
    {
      "anonymous": false,
      "inputs": [
        {
          "indexed": false,
          "internalType": "uint256",
          "name": "debaseRewardPercentage_",
          "type": "uint256"
        }
      ],
      "name": "LogSetDebaseRewardPercentage",
      "type": "event"
    },
    {
      "anonymous": false,
      "inputs": [
        {
          "indexed": false,
          "internalType": "bool",
          "name": "poolEnabled_",
          "type": "bool"
        }
      ],
      "name": "LogSetPoolEnabled",
      "type": "event"
    },
    {
      "anonymous": false,
      "inputs": [
        {
          "indexed": false,
          "internalType": "uint256",
          "name": "poolShareAdded_",
          "type": "uint256"
        },
        {
          "indexed": false,
          "internalType": "uint256",
          "name": "amount_",
          "type": "uint256"
        },
        {
          "indexed": false,
          "internalType": "uint256",
          "name": "rewardRate_",
          "type": "uint256"
        },
        {
          "indexed": false,
          "internalType": "uint256",
          "name": "periodFinish_",
          "type": "uint256"
        }
      ],
      "name": "LogStartNewDistribtionCycle",
      "type": "event"
    },
    {
      "anonymous": false,
      "inputs": [
        {
          "indexed": true,
          "internalType": "address",
          "name": "previousOwner",
          "type": "address"
        },
        {
          "indexed": true,
          "internalType": "address",
          "name": "newOwner",
          "type": "address"
        }
      ],
      "name": "OwnershipTransferred",
      "type": "event"
    },
    {
      "anonymous": false,
      "inputs": [
        {
          "indexed": true,
          "internalType": "address",
          "name": "user",
          "type": "address"
        },
        {
          "indexed": false,
          "internalType": "uint256",
          "name": "amount",
          "type": "uint256"
        },
        {
          "indexed": false,
          "internalType": "uint256",
          "name": "maturationTimestamp",
          "type": "uint256"
        },
        {
          "indexed": false,
          "internalType": "uint256",
          "name": "depositId",
          "type": "uint256"
        }
      ],
      "name": "onDeposit",
      "type": "event"
    },
    {
      "anonymous": false,
      "inputs": [
        {
          "indexed": true,
          "internalType": "address",
          "name": "user",
          "type": "address"
        },
        {
          "indexed": false,
          "internalType": "uint256",
          "name": "amount",
          "type": "uint256"
        },
        {
          "indexed": false,
          "internalType": "uint256",
          "name": "depositId",
          "type": "uint256"
        }
      ],
      "name": "onEmergencyWithdraw",
      "type": "event"
    },
    {
      "anonymous": false,
      "inputs": [
        {
          "indexed": true,
          "internalType": "address",
          "name": "user",
          "type": "address"
        },
        {
          "indexed": false,
          "internalType": "uint256",
          "name": "amount",
          "type": "uint256"
        },
        {
          "indexed": false,
          "internalType": "uint256",
          "name": "depositId",
          "type": "uint256"
        }
      ],
      "name": "onWithdraw",
      "type": "event"
    },
    {
      "inputs": [],
      "name": "accDaiPerMph",
      "outputs": [
        {
          "internalType": "uint256",
          "name": "",
          "type": "uint256"
        }
      ],
      "stateMutability": "view",
      "type": "function"
    },
    {
      "inputs": [],
      "name": "allowEmergencyWithdraw",
      "outputs": [
        {
          "internalType": "bool",
          "name": "",
          "type": "bool"
        }
      ],
      "stateMutability": "view",
      "type": "function"
    },
    {
      "inputs": [],
      "name": "blockDuration",
      "outputs": [
        {
          "internalType": "uint256",
          "name": "",
          "type": "uint256"
        }
      ],
      "stateMutability": "view",
      "type": "function"
    },
    {
      "inputs": [],
      "name": "dai",
      "outputs": [
        {
          "internalType": "contract IERC20",
          "name": "",
          "type": "address"
        }
      ],
      "stateMutability": "view",
      "type": "function"
    },
    {
      "inputs": [],
      "name": "daiFixedPool",
      "outputs": [
        {
          "internalType": "contract IDInterest",
          "name": "",
          "type": "address"
        }
      ],
      "stateMutability": "view",
      "type": "function"
    },
    {
      "inputs": [],
      "name": "debase",
      "outputs": [
        {
          "internalType": "contract IERC20",
          "name": "",
          "type": "address"
        }
      ],
      "stateMutability": "view",
      "type": "function"
    },
    {
      "inputs": [],
      "name": "debaseDaiPair",
      "outputs": [
        {
          "internalType": "contract IUniswapV2Pair",
          "name": "",
          "type": "address"
        }
      ],
      "stateMutability": "view",
      "type": "function"
    },
    {
      "inputs": [],
      "name": "debaseRewardDistributed",
      "outputs": [
        {
          "internalType": "uint256",
          "name": "",
          "type": "uint256"
        }
      ],
      "stateMutability": "view",
      "type": "function"
    },
    {
      "inputs": [],
      "name": "debaseRewardPerTokenStored",
      "outputs": [
        {
          "internalType": "uint256",
          "name": "",
          "type": "uint256"
        }
      ],
      "stateMutability": "view",
      "type": "function"
    },
    {
      "inputs": [],
      "name": "debaseRewardPercentage",
      "outputs": [
        {
          "internalType": "uint256",
          "name": "",
          "type": "uint256"
        }
      ],
      "stateMutability": "view",
      "type": "function"
    },
    {
      "inputs": [],
      "name": "debaseRewardRate",
      "outputs": [
        {
          "internalType": "uint256",
          "name": "",
          "type": "uint256"
        }
      ],
      "stateMutability": "view",
      "type": "function"
    },
    {
      "inputs": [
        {
          "internalType": "uint256",
          "name": "",
          "type": "uint256"
        }
      ],
      "name": "deposits",
      "outputs": [
        {
          "internalType": "address",
          "name": "owner",
          "type": "address"
        },
        {
          "internalType": "uint256",
          "name": "amount",
          "type": "uint256"
        },
        {
          "internalType": "uint256",
          "name": "daiAmount",
          "type": "uint256"
        },
        {
          "internalType": "uint256",
          "name": "debaseGonAmount",
          "type": "uint256"
        },
        {
          "internalType": "uint256",
          "name": "debaseReward",
          "type": "uint256"
        },
        {
          "internalType": "uint256",
          "name": "debaseRewardPerTokenPaid",
          "type": "uint256"
        },
        {
          "internalType": "uint256",
          "name": "daiDepositId",
          "type": "uint256"
        },
        {
          "internalType": "uint256",
          "name": "mphReward",
          "type": "uint256"
        },
        {
          "internalType": "uint256",
          "name": "maturationTimestamp",
          "type": "uint256"
        },
        {
          "internalType": "bool",
          "name": "withdrawed",
          "type": "bool"
        }
      ],
      "stateMutability": "view",
      "type": "function"
    },
    {
      "inputs": [],
      "name": "lastUpdateBlock",
      "outputs": [
        {
          "internalType": "uint256",
          "name": "",
          "type": "uint256"
        }
      ],
      "stateMutability": "view",
      "type": "function"
    },
    {
      "inputs": [],
      "name": "lockPeriod",
      "outputs": [
        {
          "internalType": "uint256",
          "name": "",
          "type": "uint256"
        }
      ],
      "stateMutability": "view",
      "type": "function"
    },
    {
      "inputs": [
        {
          "internalType": "address",
          "name": "",
          "type": "address"
        }
      ],
      "name": "lpDeposits",
      "outputs": [
        {
          "internalType": "uint256",
          "name": "",
          "type": "uint256"
        }
      ],
      "stateMutability": "view",
      "type": "function"
    },
    {
      "inputs": [],
      "name": "lpLimit",
      "outputs": [
        {
          "internalType": "uint256",
          "name": "",
          "type": "uint256"
        }
      ],
      "stateMutability": "view",
      "type": "function"
    },
    {
      "inputs": [],
      "name": "maxDepositLimit",
      "outputs": [
        {
          "internalType": "uint256",
          "name": "",
          "type": "uint256"
        }
      ],
      "stateMutability": "view",
      "type": "function"
    },
    {
      "inputs": [],
      "name": "maxDepositLimitEnabled",
      "outputs": [
        {
          "internalType": "bool",
          "name": "",
          "type": "bool"
        }
      ],
      "stateMutability": "view",
      "type": "function"
    },
    {
      "inputs": [],
      "name": "mph",
      "outputs": [
        {
          "internalType": "contract IERC20",
          "name": "",
          "type": "address"
        }
      ],
      "stateMutability": "view",
      "type": "function"
    },
    {
      "inputs": [],
      "name": "mphStakePool",
      "outputs": [
        {
          "internalType": "contract IReward",
          "name": "",
          "type": "address"
        }
      ],
      "stateMutability": "view",
      "type": "function"
    },
    {
      "inputs": [],
      "name": "mphVesting",
      "outputs": [
        {
          "internalType": "contract IVesting",
          "name": "",
          "type": "address"
        }
      ],
      "stateMutability": "view",
      "type": "function"
    },
    {
      "inputs": [],
      "name": "owner",
      "outputs": [
        {
          "internalType": "address",
          "name": "",
          "type": "address"
        }
      ],
      "stateMutability": "view",
      "type": "function"
    },
    {
      "inputs": [],
      "name": "periodFinish",
      "outputs": [
        {
          "internalType": "uint256",
          "name": "",
          "type": "uint256"
        }
      ],
      "stateMutability": "view",
      "type": "function"
    },
    {
      "inputs": [],
      "name": "policy",
      "outputs": [
        {
          "internalType": "address",
          "name": "",
          "type": "address"
        }
      ],
      "stateMutability": "view",
      "type": "function"
    },
    {
      "inputs": [],
      "name": "poolEnabled",
      "outputs": [
        {
          "internalType": "bool",
          "name": "",
          "type": "bool"
        }
      ],
      "stateMutability": "view",
      "type": "function"
    },
    {
      "inputs": [],
      "name": "renounceOwnership",
      "outputs": [],
      "stateMutability": "nonpayable",
      "type": "function"
    },
    {
      "inputs": [],
      "name": "totalLpLimit",
      "outputs": [
        {
          "internalType": "uint256",
          "name": "",
          "type": "uint256"
        }
      ],
      "stateMutability": "view",
      "type": "function"
    },
    {
      "inputs": [],
      "name": "totalLpLimitEnabled",
      "outputs": [
        {
          "internalType": "bool",
          "name": "",
          "type": "bool"
        }
      ],
      "stateMutability": "view",
      "type": "function"
    },
    {
      "inputs": [],
      "name": "totalLpLocked",
      "outputs": [
        {
          "internalType": "uint256",
          "name": "",
          "type": "uint256"
        }
      ],
      "stateMutability": "view",
      "type": "function"
    },
    {
      "inputs": [
        {
          "internalType": "address",
          "name": "newOwner",
          "type": "address"
        }
      ],
      "name": "transferOwnership",
      "outputs": [],
      "stateMutability": "nonpayable",
      "type": "function"
    },
    {
      "inputs": [
        {
          "internalType": "uint256",
          "name": "amount",
          "type": "uint256"
        }
      ],
      "name": "deposit",
      "outputs": [
        {
          "internalType": "uint256",
          "name": "",
          "type": "uint256"
        }
      ],
      "stateMutability": "nonpayable",
      "type": "function"
    },
    {
      "inputs": [
        {
          "internalType": "uint256",
          "name": "depositId",
          "type": "uint256"
        },
        {
          "internalType": "uint256",
          "name": "fundingId",
          "type": "uint256"
        }
      ],
      "name": "withdraw",
      "outputs": [],
      "stateMutability": "nonpayable",
      "type": "function"
    },
    {
      "inputs": [
        {
          "internalType": "uint256[]",
          "name": "depositIds",
          "type": "uint256[]"
        },
        {
          "internalType": "uint256[]",
          "name": "fundingIds",
          "type": "uint256[]"
        }
      ],
      "name": "multiWithdraw",
      "outputs": [],
      "stateMutability": "nonpayable",
      "type": "function"
    },
    {
      "inputs": [
        {
          "internalType": "uint256",
          "name": "depositId",
          "type": "uint256"
        },
        {
          "internalType": "uint256",
          "name": "fundingId",
          "type": "uint256"
        }
      ],
      "name": "emergencyWithdraw",
      "outputs": [],
      "stateMutability": "nonpayable",
      "type": "function"
    },
    {
      "inputs": [
        {
          "internalType": "uint256",
          "name": "debaseRewardPercentage_",
          "type": "uint256"
        }
      ],
      "name": "setRewardPercentage",
      "outputs": [],
      "stateMutability": "nonpayable",
      "type": "function"
    },
    {
      "inputs": [
        {
          "internalType": "uint256",
          "name": "blockDuration_",
          "type": "uint256"
        }
      ],
      "name": "setBlockDuration",
      "outputs": [],
      "stateMutability": "nonpayable",
      "type": "function"
    },
    {
      "inputs": [
        {
          "internalType": "bool",
          "name": "poolEnabled_",
          "type": "bool"
        }
      ],
      "name": "setPoolEnabled",
      "outputs": [],
      "stateMutability": "nonpayable",
      "type": "function"
    },
    {
      "inputs": [
        {
          "internalType": "uint256",
          "name": "_fee",
          "type": "uint256"
        }
      ],
      "name": "setFee",
      "outputs": [],
      "stateMutability": "nonpayable",
      "type": "function"
    },
    {
      "inputs": [
        {
          "internalType": "address",
          "name": "_treasury",
          "type": "address"
        }
      ],
      "name": "setTreasury",
      "outputs": [],
      "stateMutability": "nonpayable",
      "type": "function"
    },
    {
      "inputs": [
        {
          "internalType": "uint256",
          "name": "_lpLimit",
          "type": "uint256"
        }
      ],
      "name": "setLpLimit",
      "outputs": [],
      "stateMutability": "nonpayable",
      "type": "function"
    },
    {
      "inputs": [
        {
          "internalType": "uint256",
          "name": "_maxDepositLimit",
          "type": "uint256"
        }
      ],
      "name": "setMaxDepositLimit",
      "outputs": [],
      "stateMutability": "nonpayable",
      "type": "function"
    },
    {
      "inputs": [
        {
          "internalType": "uint256",
          "name": "_totalLpLimit",
          "type": "uint256"
        }
      ],
      "name": "setTotalLpLimit",
      "outputs": [],
      "stateMutability": "nonpayable",
      "type": "function"
    },
    {
      "inputs": [
        {
          "internalType": "bool",
          "name": "_totalLpLimitEnabled",
          "type": "bool"
        }
      ],
      "name": "setTotalLpLimitEnabled",
      "outputs": [],
      "stateMutability": "nonpayable",
      "type": "function"
    },
    {
      "inputs": [
        {
          "internalType": "bool",
          "name": "_maxDepositLimitEnabled",
          "type": "bool"
        }
      ],
      "name": "setMaxDepositLimitEnabled",
      "outputs": [],
      "stateMutability": "nonpayable",
      "type": "function"
    },
    {
      "inputs": [
        {
          "internalType": "uint256",
          "name": "_lockPeriod",
          "type": "uint256"
        }
      ],
      "name": "setLockPeriod",
      "outputs": [],
      "stateMutability": "nonpayable",
      "type": "function"
    },
    {
      "inputs": [
        {
          "internalType": "bool",
          "name": "_allowEmergencyWithdraw",
          "type": "bool"
        }
      ],
      "name": "setAllowEmergencyWithdraw",
      "outputs": [],
      "stateMutability": "nonpayable",
      "type": "function"
    },
    {
      "inputs": [],
      "name": "debaseRewardPerToken",
      "outputs": [
        {
          "internalType": "uint256",
          "name": "",
          "type": "uint256"
        }
      ],
      "stateMutability": "view",
      "type": "function"
    },
    {
      "inputs": [
        {
          "internalType": "uint256",
          "name": "depositId",
          "type": "uint256"
        }
      ],
      "name": "earned",
      "outputs": [
        {
          "internalType": "uint256",
          "name": "",
          "type": "uint256"
        }
      ],
      "stateMutability": "view",
      "type": "function"
    },
    {
      "inputs": [
        {
          "internalType": "int256",
          "name": "supplyDelta_",
          "type": "int256"
        },
        {
          "internalType": "int256",
          "name": "rebaseLag_",
          "type": "int256"
        },
        {
          "internalType": "uint256",
          "name": "exchangeRate_",
          "type": "uint256"
        },
        {
          "internalType": "uint256",
          "name": "debasePolicyBalance",
          "type": "uint256"
        }
      ],
      "name": "checkStabilizerAndGetReward",
      "outputs": [
        {
          "internalType": "uint256",
          "name": "rewardAmount_",
          "type": "uint256"
        }
      ],
      "stateMutability": "nonpayable",
      "type": "function"
    }
  ],
  "bytecode": "0x60806040523480156200001157600080fd5b50604051620060c2380380620060c283398181016040526101a08110156200003857600080fd5b81019080805190602001909291908051906020019092919080519060200190929190805190602001909291908051906020019092919080519060200190929190805190602001909291908051906020019092919080519060200190929190805190602001909291908051906020019092919080519060200190929190805190602001909291905050506000620000d36200048d60201b60201c565b9050806000806101000a81548173ffffffffffffffffffffffffffffffffffffffff021916908373ffffffffffffffffffffffffffffffffffffffff1602179055508073ffffffffffffffffffffffffffffffffffffffff16600073ffffffffffffffffffffffffffffffffffffffff167f8be0079c531659141344cd1fd0a4f28419497f9722a3daafe3b4186f6b6457e060405160405180910390a350600073ffffffffffffffffffffffffffffffffffffffff168373ffffffffffffffffffffffffffffffffffffffff16141562000215576040517f08c379a000000000000000000000000000000000000000000000000000000000815260040180806020018281038252600c8152602001807f496e76616c69642061646472000000000000000000000000000000000000000081525060200191505060405180910390fd5b8c600160006101000a81548173ffffffffffffffffffffffffffffffffffffffff021916908373ffffffffffffffffffffffffffffffffffffffff1602179055508b600560006101000a81548173ffffffffffffffffffffffffffffffffffffffff021916908373ffffffffffffffffffffffffffffffffffffffff1602179055508a600660006101000a81548173ffffffffffffffffffffffffffffffffffffffff021916908373ffffffffffffffffffffffffffffffffffffffff16021790555089600760006101000a81548173ffffffffffffffffffffffffffffffffffffffff021916908373ffffffffffffffffffffffffffffffffffffffff16021790555088600860006101000a81548173ffffffffffffffffffffffffffffffffffffffff021916908373ffffffffffffffffffffffffffffffffffffffff16021790555087600260006101000a81548173ffffffffffffffffffffffffffffffffffffffff021916908373ffffffffffffffffffffffffffffffffffffffff16021790555086600360006101000a81548173ffffffffffffffffffffffffffffffffffffffff021916908373ffffffffffffffffffffffffffffffffffffffff16021790555085600460006101000a81548173ffffffffffffffffffffffffffffffffffffffff021916908373ffffffffffffffffffffffffffffffffffffffff16021790555084600c819055508360138190555082601460006101000a81548173ffffffffffffffffffffffffffffffffffffffff021916908373ffffffffffffffffffffffffffffffffffffffff1602179055508160198190555080601d819055505050505050505050505050505062000495565b600033905090565b615c1d80620004a56000396000f3fe608060405234801561001057600080fd5b50600436106102bb5760003560e01c806369fe0e2d11610182578063b02c43d0116100e9578063dfe60835116100a2578063f2ac00e51161007c578063f2ac00e514610c7b578063f2fde38b14610c99578063f4b9fa7514610cdd578063fd896c8814610d27576102bb565b8063dfe6083514610beb578063ebe2b12b14610c19578063f0f4426014610c37576102bb565b8063b02c43d014610a6c578063b63c44e714610b1d578063b6b55f2514610b3b578063bcb31edc14610b7d578063be46aec614610bab578063dfba8e7c14610bcd576102bb565b80638847c82d1161013b5780638847c82d1461089e5780638da5cb5b146108ce578063995a419c14610918578063a218141b14610936578063aea62e3f14610954578063af12739714610a22576102bb565b806369fe0e2d14610788578063715018a6146107b6578063779972da146107c05780637a784d23146107ee578063838a14ca1461081c5780638798a9d21461083e576102bb565b8063441a3e701161022657806357394d09116101df57806357394d091461065657806359e1a699146106745780635b470e6e146106965780635d4c3224146106c45780636422380a146106f457806365616d011461073e576102bb565b8063441a3e7014610514578063448008511461054c578063460f6bb11461056a5780634d6ed8c4146105b457806352058a7b146105f6578063529f35e914610626576102bb565b80632304aa61116102785780632304aa61146103ce578063291a7f871461041857806335b25d171461047057806338dfa6391461048e5780633fd8b02f146104ac5780634083b910146104ca576102bb565b80630505c8c9146102c0578063096536741461030a578063112f719d146103385780631a26af7a146103565780631f276b6e14610378578063201e908e146103b0575b600080fd5b6102c8610d45565b604051808273ffffffffffffffffffffffffffffffffffffffff1673ffffffffffffffffffffffffffffffffffffffff16815260200191505060405180910390f35b6103366004803603602081101561032057600080fd5b8101908080359060200190929190505050610d6b565b005b610340610e77565b6040518082815260200191505060405180910390f35b61035e610e7d565b604051808215151515815260200191505060405180910390f35b6103ae6004803603604081101561038e57600080fd5b810190808035906020019092919080359060200190929190505050610e90565b005b6103b86112c1565b6040518082815260200191505060405180910390f35b6103d66112c7565b604051808273ffffffffffffffffffffffffffffffffffffffff1673ffffffffffffffffffffffffffffffffffffffff16815260200191505060405180910390f35b61045a6004803603602081101561042e57600080fd5b81019080803573ffffffffffffffffffffffffffffffffffffffff1690602001909291905050506112ed565b6040518082815260200191505060405180910390f35b610478611305565b6040518082815260200191505060405180910390f35b61049661130b565b6040518082815260200191505060405180910390f35b6104b4611311565b6040518082815260200191505060405180910390f35b6104d2611317565b604051808273ffffffffffffffffffffffffffffffffffffffff1673ffffffffffffffffffffffffffffffffffffffff16815260200191505060405180910390f35b61054a6004803603604081101561052a57600080fd5b81019080803590602001909291908035906020019092919050505061133d565b005b610554611354565b6040518082815260200191505060405180910390f35b61057261135a565b604051808273ffffffffffffffffffffffffffffffffffffffff1673ffffffffffffffffffffffffffffffffffffffff16815260200191505060405180910390f35b6105e0600480360360208110156105ca57600080fd5b8101908080359060200190929190505050611380565b6040518082815260200191505060405180910390f35b6106246004803603602081101561060c57600080fd5b8101908080351515906020019092919050505061149a565b005b6106546004803603602081101561063c57600080fd5b81019080803515159060200190929190505050611580565b005b61065e6116b0565b6040518082815260200191505060405180910390f35b61067c61173e565b604051808215151515815260200191505060405180910390f35b6106c2600480360360208110156106ac57600080fd5b8101908080359060200190929190505050611751565b005b6106f2600480360360208110156106da57600080fd5b81019080803515159060200190929190505050611824565b005b6106fc61190a565b604051808273ffffffffffffffffffffffffffffffffffffffff1673ffffffffffffffffffffffffffffffffffffffff16815260200191505060405180910390f35b610746611930565b604051808273ffffffffffffffffffffffffffffffffffffffff1673ffffffffffffffffffffffffffffffffffffffff16815260200191505060405180910390f35b6107b46004803603602081101561079e57600080fd5b8101908080359060200190929190505050611956565b005b6107be611a29565b005b6107ec600480360360208110156107d657600080fd5b8101908080359060200190929190505050611bb1565b005b61081a6004803603602081101561080457600080fd5b8101908080359060200190929190505050611cfa565b005b610824611dcd565b604051808215151515815260200191505060405180910390f35b6108886004803603608081101561085457600080fd5b8101908080359060200190929190803590602001909291908035906020019092919080359060200190929190505050611de0565b6040518082815260200191505060405180910390f35b6108cc600480360360208110156108b457600080fd5b81019080803515159060200190929190505050611eed565b005b6108d6611fd3565b604051808273ffffffffffffffffffffffffffffffffffffffff1673ffffffffffffffffffffffffffffffffffffffff16815260200191505060405180910390f35b610920611ffc565b6040518082815260200191505060405180910390f35b61093e612002565b6040518082815260200191505060405180910390f35b610a206004803603604081101561096a57600080fd5b810190808035906020019064010000000081111561098757600080fd5b82018360208201111561099957600080fd5b803590602001918460208302840111640100000000831117156109bb57600080fd5b9091929391929390803590602001906401000000008111156109dc57600080fd5b8201836020820111156109ee57600080fd5b80359060200191846020830284011164010000000083111715610a1057600080fd5b9091929391929390505050612008565b005b610a2a6120dd565b604051808273ffffffffffffffffffffffffffffffffffffffff1673ffffffffffffffffffffffffffffffffffffffff16815260200191505060405180910390f35b610a9860048036036020811015610a8257600080fd5b8101908080359060200190929190505050612103565b604051808b73ffffffffffffffffffffffffffffffffffffffff1673ffffffffffffffffffffffffffffffffffffffff1681526020018a8152602001898152602001888152602001878152602001868152602001858152602001848152602001838152602001821515151581526020019a505050505050505050505060405180910390f35b610b25612184565b6040518082815260200191505060405180910390f35b610b6760048036036020811015610b5157600080fd5b810190808035906020019092919050505061218a565b6040518082815260200191505060405180910390f35b610ba960048036036020811015610b9357600080fd5b810190808035906020019092919050505061267c565b005b610bb3612798565b604051808215151515815260200191505060405180910390f35b610bd56127ab565b6040518082815260200191505060405180910390f35b610c1760048036036020811015610c0157600080fd5b81019080803590602001909291905050506127b1565b005b610c21612884565b6040518082815260200191505060405180910390f35b610c7960048036036020811015610c4d57600080fd5b81019080803573ffffffffffffffffffffffffffffffffffffffff16906020019092919050505061288a565b005b610c83612a3a565b6040518082815260200191505060405180910390f35b610cdb60048036036020811015610caf57600080fd5b81019080803573ffffffffffffffffffffffffffffffffffffffff169060200190929190505050612a40565b005b610ce5612c4d565b604051808273ffffffffffffffffffffffffffffffffffffffff1673ffffffffffffffffffffffffffffffffffffffff16815260200191505060405180910390f35b610d2f612c73565b6040518082815260200191505060405180910390f35b600860009054906101000a900473ffffffffffffffffffffffffffffffffffffffff1681565b610d73612c79565b73ffffffffffffffffffffffffffffffffffffffff166000809054906101000a900473ffffffffffffffffffffffffffffffffffffffff1673ffffffffffffffffffffffffffffffffffffffff1614610e34576040517f08c379a00000000000000000000000000000000000000000000000000000000081526004018080602001828103825260208152602001807f4f776e61626c653a2063616c6c6572206973206e6f7420746865206f776e657281525060200191505060405180910390fd5b806019819055507f28cf650dc6bbdd6a6fa3026f34132cba6ec966fa67dfd5fe58356839efb63be86019546040518082815260200191505060405180910390a150565b60185481565b601e60019054906101000a900460ff1681565b601e60009054906101000a900460ff16610f12576040517f08c379a00000000000000000000000000000000000000000000000000000000081526004018080602001828103825260128152602001807f506f6f6c2069736e277420656e61626c6564000000000000000000000000000081525060200191505060405180910390fd5b601e60019054906101000a900460ff16610f94576040517f08c379a000000000000000000000000000000000000000000000000000000000815260040180806020018281038252601b8152602001807f656d657267656e63792077697468647261772064697361626c6564000000000081525060200191505060405180910390fd5b601254821061100b576040517f08c379a000000000000000000000000000000000000000000000000000000000815260040180806020018281038252600a8152602001807f6e6f206465706f7369740000000000000000000000000000000000000000000081525060200191505060405180910390fd5b611013612c81565b6000600f600084815260200190815260200160002090503373ffffffffffffffffffffffffffffffffffffffff168160000160009054906101000a900473ffffffffffffffffffffffffffffffffffffffff1673ffffffffffffffffffffffffffffffffffffffff16146110ef576040517f08c379a00000000000000000000000000000000000000000000000000000000081526004018080602001828103825260098152602001807f6e6f74206f776e6572000000000000000000000000000000000000000000000081525060200191505060405180910390fd5b600015158160090160009054906101000a900460ff1615151461117a576040517f08c379a00000000000000000000000000000000000000000000000000000000081526004018080602001828103825260128152602001807f7769746864726177656420616c7265616479000000000000000000000000000081525060200191505060405180910390fd5b6111848383612e8e565b61118d83613165565b60018160090160006101000a81548160ff0219169083151502179055506112008160010154601060003373ffffffffffffffffffffffffffffffffffffffff1673ffffffffffffffffffffffffffffffffffffffff168152602001908152602001600020546133b590919063ffffffff16565b601060003373ffffffffffffffffffffffffffffffffffffffff1673ffffffffffffffffffffffffffffffffffffffff1681526020019081526020016000208190555061125c8160010154600e546133b590919063ffffffff16565b600e819055503373ffffffffffffffffffffffffffffffffffffffff167f5712bb005ae686d72a5551442c8cb306ec1f7fbbc1ae6e607207860ac017dc8a826001015485604051808381526020018281526020019250505060405180910390a2505050565b601d5481565b600760009054906101000a900473ffffffffffffffffffffffffffffffffffffffff1681565b60106020528060005260406000206000915090505481565b60195481565b601b5481565b600c5481565b600360009054906101000a900473ffffffffffffffffffffffffffffffffffffffff1681565b611345612c81565b6113503383836133ff565b5050565b601a5481565b600260009054906101000a900473ffffffffffffffffffffffffffffffffffffffff1681565b600060125482106113f9576040517f08c379a000000000000000000000000000000000000000000000000000000000815260040180806020018281038252600a8152602001807f6e6f206465706f7369740000000000000000000000000000000000000000000081525060200191505060405180910390fd5b611493600f600084815260200190815260200160002060040154611485670de0b6b3a7640000611477611452600f6000898152602001908152602001600020600501546114446116b0565b6133b590919063ffffffff16565b600f60008981526020019081526020016000206001015461382190919063ffffffff16565b6138a790919063ffffffff16565b6138f190919063ffffffff16565b9050919050565b6114a2612c79565b73ffffffffffffffffffffffffffffffffffffffff166000809054906101000a900473ffffffffffffffffffffffffffffffffffffffff1673ffffffffffffffffffffffffffffffffffffffff1614611563576040517f08c379a00000000000000000000000000000000000000000000000000000000081526004018080602001828103825260208152602001807f4f776e61626c653a2063616c6c6572206973206e6f7420746865206f776e657281525060200191505060405180910390fd5b80600d60016101000a81548160ff02191690831515021790555050565b611588612c79565b73ffffffffffffffffffffffffffffffffffffffff166000809054906101000a900473ffffffffffffffffffffffffffffffffffffffff1673ffffffffffffffffffffffffffffffffffffffff1614611649576040517f08c379a00000000000000000000000000000000000000000000000000000000081526004018080602001828103825260208152602001807f4f776e61626c653a2063616c6c6572206973206e6f7420746865206f776e657281525060200191505060405180910390fd5b80601e60006101000a81548160ff0219169083151502179055507f0fc5960ebe0d769d367a5952c3d384663054acd195413084d4c5e3a71c4a7d85601e60009054906101000a900460ff16604051808215151515815260200191505060405180910390a150565b600080600e5414156116c657601854905061173b565b611738611727600e54611719670de0b6b3a764000061170b6016546116fd6017546116ef613979565b6133b590919063ffffffff16565b61382190919063ffffffff16565b61382190919063ffffffff16565b6138a790919063ffffffff16565b6018546138f190919063ffffffff16565b90505b90565b600d60019054906101000a900460ff1681565b611759612c79565b73ffffffffffffffffffffffffffffffffffffffff166000809054906101000a900473ffffffffffffffffffffffffffffffffffffffff1673ffffffffffffffffffffffffffffffffffffffff161461181a576040517f08c379a00000000000000000000000000000000000000000000000000000000081526004018080602001828103825260208152602001807f4f776e61626c653a2063616c6c6572206973206e6f7420746865206f776e657281525060200191505060405180910390fd5b8060098190555050565b61182c612c79565b73ffffffffffffffffffffffffffffffffffffffff166000809054906101000a900473ffffffffffffffffffffffffffffffffffffffff1673ffffffffffffffffffffffffffffffffffffffff16146118ed576040517f08c379a00000000000000000000000000000000000000000000000000000000081526004018080602001828103825260208152602001807f4f776e61626c653a2063616c6c6572206973206e6f7420746865206f776e657281525060200191505060405180910390fd5b80601e60016101000a81548160ff02191690831515021790555050565b600660009054906101000a900473ffffffffffffffffffffffffffffffffffffffff1681565b600160009054906101000a900473ffffffffffffffffffffffffffffffffffffffff1681565b61195e612c79565b73ffffffffffffffffffffffffffffffffffffffff166000809054906101000a900473ffffffffffffffffffffffffffffffffffffffff1673ffffffffffffffffffffffffffffffffffffffff1614611a1f576040517f08c379a00000000000000000000000000000000000000000000000000000000081526004018080602001828103825260208152602001807f4f776e61626c653a2063616c6c6572206973206e6f7420746865206f776e657281525060200191505060405180910390fd5b8060138190555050565b611a31612c79565b73ffffffffffffffffffffffffffffffffffffffff166000809054906101000a900473ffffffffffffffffffffffffffffffffffffffff1673ffffffffffffffffffffffffffffffffffffffff1614611af2576040517f08c379a00000000000000000000000000000000000000000000000000000000081526004018080602001828103825260208152602001807f4f776e61626c653a2063616c6c6572206973206e6f7420746865206f776e657281525060200191505060405180910390fd5b600073ffffffffffffffffffffffffffffffffffffffff166000809054906101000a900473ffffffffffffffffffffffffffffffffffffffff1673ffffffffffffffffffffffffffffffffffffffff167f8be0079c531659141344cd1fd0a4f28419497f9722a3daafe3b4186f6b6457e060405160405180910390a360008060006101000a81548173ffffffffffffffffffffffffffffffffffffffff021916908373ffffffffffffffffffffffffffffffffffffffff160217905550565b611bb9612c79565b73ffffffffffffffffffffffffffffffffffffffff166000809054906101000a900473ffffffffffffffffffffffffffffffffffffffff1673ffffffffffffffffffffffffffffffffffffffff1614611c7a576040517f08c379a00000000000000000000000000000000000000000000000000000000081526004018080602001828103825260208152602001807f4f776e61626c653a2063616c6c6572206973206e6f7420746865206f776e657281525060200191505060405180910390fd5b60008111611cf0576040517f08c379a00000000000000000000000000000000000000000000000000000000081526004018080602001828103825260138152602001807f696e76616c6964206c6f636b20706572696f640000000000000000000000000081525060200191505060405180910390fd5b80600c8190555050565b611d02612c79565b73ffffffffffffffffffffffffffffffffffffffff166000809054906101000a900473ffffffffffffffffffffffffffffffffffffffff1673ffffffffffffffffffffffffffffffffffffffff1614611dc3576040517f08c379a00000000000000000000000000000000000000000000000000000000081526004018080602001828103825260208152602001807f4f776e61626c653a2063616c6c6572206973206e6f7420746865206f776e657281525060200191505060405180910390fd5b80600b8190555050565b600d60009054906101000a900460ff1681565b6000600860009054906101000a900473ffffffffffffffffffffffffffffffffffffffff1673ffffffffffffffffffffffffffffffffffffffff163373ffffffffffffffffffffffffffffffffffffffff1614611e88576040517f08c379a0000000000000000000000000000000000000000000000000000000008152600401808060200182810382526029815260200180615b4e6029913960400191505060405180910390fd5b601554431115611ee0576000611ec3670de0b6b3a7640000611eb56019548661382190919063ffffffff16565b6138a790919063ffffffff16565b9050808310611ede57611ed58161398c565b80915050611ee5565b505b600090505b949350505050565b611ef5612c79565b73ffffffffffffffffffffffffffffffffffffffff166000809054906101000a900473ffffffffffffffffffffffffffffffffffffffff1673ffffffffffffffffffffffffffffffffffffffff1614611fb6576040517f08c379a00000000000000000000000000000000000000000000000000000000081526004018080602001828103825260208152602001807f4f776e61626c653a2063616c6c6572206973206e6f7420746865206f776e657281525060200191505060405180910390fd5b80600d60006101000a81548160ff02191690831515021790555050565b60008060009054906101000a900473ffffffffffffffffffffffffffffffffffffffff16905090565b60165481565b60175481565b818190508484905014612083576040517f08c379a00000000000000000000000000000000000000000000000000000000081526004018080602001828103825260108152602001807f696e636f7272656374206c656e6774680000000000000000000000000000000081525060200191505060405180910390fd5b61208b612c81565b60008090505b848490508110156120d6576120cb338686848181106120ac57fe5b905060200201358585858181106120bf57fe5b905060200201356133ff565b600181019050612091565b5050505050565b600460009054906101000a900473ffffffffffffffffffffffffffffffffffffffff1681565b600f6020528060005260406000206000915090508060000160009054906101000a900473ffffffffffffffffffffffffffffffffffffffff16908060010154908060020154908060030154908060040154908060050154908060060154908060070154908060080154908060090160009054906101000a900460ff1690508a565b600a5481565b6000601e60009054906101000a900460ff1661220e576040517f08c379a00000000000000000000000000000000000000000000000000000000081526004018080602001828103825260128152602001807f506f6f6c2069736e277420656e61626c6564000000000000000000000000000081525060200191505060405180910390fd5b60001515600d60009054906101000a900460ff16151514806122465750600b5461224383600e546138f190919063ffffffff16565b11155b6122b8576040517f08c379a00000000000000000000000000000000000000000000000000000000081526004018080602001828103825260118152602001807f546f206d756368206c70206c6f636b656400000000000000000000000000000081525060200191505060405180910390fd5b60001515600d60019054906101000a900460ff161515148061232d5750600a5461232a83601060003373ffffffffffffffffffffffffffffffffffffffff1673ffffffffffffffffffffffffffffffffffffffff168152602001908152602001600020546138f190919063ffffffff16565b11155b61239f576040517f08c379a000000000000000000000000000000000000000000000000000000000815260040180806020018281038252601d8152602001807f746f206d756368206465706f73697420666f722074686973207573657200000081525060200191505060405180910390fd5b6000806123ab84613b6e565b915091506000806123bb84614223565b9150915061241186601060003373ffffffffffffffffffffffffffffffffffffffff1673ffffffffffffffffffffffffffffffffffffffff168152602001908152602001600020546138f190919063ffffffff16565b601060003373ffffffffffffffffffffffffffffffffffffffff1673ffffffffffffffffffffffffffffffffffffffff1681526020019081526020016000208190555061246986600e546138f190919063ffffffff16565b600e81905550612477612c81565b6040518061014001604052803373ffffffffffffffffffffffffffffffffffffffff1681526020018781526020018581526020016124c56124b661437c565b8661382190919063ffffffff16565b815260200160008152602001600081526020018381526020016000815260200182815260200160001515815250600f6000601254815260200190815260200160002060008201518160000160006101000a81548173ffffffffffffffffffffffffffffffffffffffff021916908373ffffffffffffffffffffffffffffffffffffffff1602179055506020820151816001015560408201518160020155606082015181600301556080820151816004015560a0820151816005015560c0820151816006015560e0820151816007015561010082015181600801556101208201518160090160006101000a81548160ff0219169083151502179055509050506125d960016012546138f190919063ffffffff16565b6012819055506125e882614451565b3373ffffffffffffffffffffffffffffffffffffffff167fb49bb132260f6aa1c86e2d2a3957c097216e6ec9b5fa15867289f058b4d297ac878361263860016012546133b590919063ffffffff16565b60405180848152602001838152602001828152602001935050505060405180910390a261267160016012546133b590919063ffffffff16565b945050505050919050565b612684612c79565b73ffffffffffffffffffffffffffffffffffffffff166000809054906101000a900473ffffffffffffffffffffffffffffffffffffffff1673ffffffffffffffffffffffffffffffffffffffff1614612745576040517f08c379a00000000000000000000000000000000000000000000000000000000081526004018080602001828103825260208152602001807f4f776e61626c653a2063616c6c6572206973206e6f7420746865206f776e657281525060200191505060405180910390fd5b6001601d54101561275557600080fd5b80601d819055507f3785ba91aa39d946a094688c634e4b7b8a68e01e6f8617958324a10990576591601d546040518082815260200191505060405180910390a150565b601e60009054906101000a900460ff1681565b600b5481565b6127b9612c79565b73ffffffffffffffffffffffffffffffffffffffff166000809054906101000a900473ffffffffffffffffffffffffffffffffffffffff1673ffffffffffffffffffffffffffffffffffffffff161461287a576040517f08c379a00000000000000000000000000000000000000000000000000000000081526004018080602001828103825260208152602001807f4f776e61626c653a2063616c6c6572206973206e6f7420746865206f776e657281525060200191505060405180910390fd5b80600a8190555050565b60155481565b612892612c79565b73ffffffffffffffffffffffffffffffffffffffff166000809054906101000a900473ffffffffffffffffffffffffffffffffffffffff1673ffffffffffffffffffffffffffffffffffffffff1614612953576040517f08c379a00000000000000000000000000000000000000000000000000000000081526004018080602001828103825260208152602001807f4f776e61626c653a2063616c6c6572206973206e6f7420746865206f776e657281525060200191505060405180910390fd5b600073ffffffffffffffffffffffffffffffffffffffff168173ffffffffffffffffffffffffffffffffffffffff1614156129f6576040517f08c379a000000000000000000000000000000000000000000000000000000000815260040180806020018281038252600c8152602001807f496e76616c69642061646472000000000000000000000000000000000000000081525060200191505060405180910390fd5b80601460006101000a81548173ffffffffffffffffffffffffffffffffffffffff021916908373ffffffffffffffffffffffffffffffffffffffff16021790555050565b60095481565b612a48612c79565b73ffffffffffffffffffffffffffffffffffffffff166000809054906101000a900473ffffffffffffffffffffffffffffffffffffffff1673ffffffffffffffffffffffffffffffffffffffff1614612b09576040517f08c379a00000000000000000000000000000000000000000000000000000000081526004018080602001828103825260208152602001807f4f776e61626c653a2063616c6c6572206973206e6f7420746865206f776e657281525060200191505060405180910390fd5b600073ffffffffffffffffffffffffffffffffffffffff168173ffffffffffffffffffffffffffffffffffffffff161415612b8f576040517f08c379a0000000000000000000000000000000000000000000000000000000008152600401808060200182810382526026815260200180615b286026913960400191505060405180910390fd5b8073ffffffffffffffffffffffffffffffffffffffff166000809054906101000a900473ffffffffffffffffffffffffffffffffffffffff1673ffffffffffffffffffffffffffffffffffffffff167f8be0079c531659141344cd1fd0a4f28419497f9722a3daafe3b4186f6b6457e060405160405180910390a3806000806101000a81548173ffffffffffffffffffffffffffffffffffffffff021916908373ffffffffffffffffffffffffffffffffffffffff16021790555050565b600560009054906101000a900473ffffffffffffffffffffffffffffffffffffffff1681565b600e5481565b600033905090565b60008090506000601c5490505b601254811015612e77576000600460009054906101000a900473ffffffffffffffffffffffffffffffffffffffff1673ffffffffffffffffffffffffffffffffffffffff1663cdf44dab30846040518363ffffffff1660e01b8152600401808373ffffffffffffffffffffffffffffffffffffffff1673ffffffffffffffffffffffffffffffffffffffff16815260200182815260200192505050602060405180830381600087803b158015612d4357600080fd5b505af1158015612d57573d6000803e3d6000fd5b505050506040513d6020811015612d6d57600080fd5b810190808051906020019092919050505090506000811115612e3357612d9c81846138f190919063ffffffff16565b9250612dc781600f6000858152602001908152602001600020600701546138f190919063ffffffff16565b600f600084815260200190815260200160002060070181905550612e1b612df982601b5461382190919063ffffffff16565b60116000858152602001908152602001600020546138f190919063ffffffff16565b60116000848152602001908152602001600020819055505b600f6000838152602001908152602001600020600801544210612e6b57612e646001836138f190919063ffffffff16565b601c819055505b50600181019050612c8e565b506000811115612e8b57612e8a816144bb565b5b50565b6000600f600084815260200190815260200160002090506000612eb084614553565b9050600260009054906101000a900473ffffffffffffffffffffffffffffffffffffffff1673ffffffffffffffffffffffffffffffffffffffff16637aebdce68360060154856040518363ffffffff1660e01b81526004018083815260200182815260200192505050600060405180830381600087803b158015612f3357600080fd5b505af1158015612f47573d6000803e3d6000fd5b50505050600560009054906101000a900473ffffffffffffffffffffffffffffffffffffffff1673ffffffffffffffffffffffffffffffffffffffff1663a9059cbb8360000160009054906101000a900473ffffffffffffffffffffffffffffffffffffffff1684600201546040518363ffffffff1660e01b8152600401808373ffffffffffffffffffffffffffffffffffffffff1673ffffffffffffffffffffffffffffffffffffffff16815260200182815260200192505050602060405180830381600087803b15801561301c57600080fd5b505af1158015613030573d6000803e3d6000fd5b505050506040513d602081101561304657600080fd5b810190808051906020019092919050505050600560009054906101000a900473ffffffffffffffffffffffffffffffffffffffff1673ffffffffffffffffffffffffffffffffffffffff1663a9059cbb601460009054906101000a900473ffffffffffffffffffffffffffffffffffffffff16836040518363ffffffff1660e01b8152600401808373ffffffffffffffffffffffffffffffffffffffff1673ffffffffffffffffffffffffffffffffffffffff16815260200182815260200192505050602060405180830381600087803b15801561312357600080fd5b505af1158015613137573d6000803e3d6000fd5b505050506040513d602081101561314d57600080fd5b81019080805190602001909291905050505050505050565b61316e81614451565b600061317982611380565b905060008111156133b1576000600f6000848152602001908152602001600020600401819055506000613271670de0b6b3a764000061326384600660009054906101000a900473ffffffffffffffffffffffffffffffffffffffff1673ffffffffffffffffffffffffffffffffffffffff166318160ddd6040518163ffffffff1660e01b815260040160206040518083038186803b15801561321a57600080fd5b505afa15801561322e573d6000803e3d6000fd5b505050506040513d602081101561324457600080fd5b810190808051906020019092919050505061382190919063ffffffff16565b6138a790919063ffffffff16565b9050613325600f600085815260200190815260200160002060000160009054906101000a900473ffffffffffffffffffffffffffffffffffffffff166132dd6132b861437c565b600f6000888152602001908152602001600020600301546138a790919063ffffffff16565b600660009054906101000a900473ffffffffffffffffffffffffffffffffffffffff1673ffffffffffffffffffffffffffffffffffffffff1661466e9092919063ffffffff16565b613394601460009054906101000a900473ffffffffffffffffffffffffffffffffffffffff1682600660009054906101000a900473ffffffffffffffffffffffffffffffffffffffff1673ffffffffffffffffffffffffffffffffffffffff1661466e9092919063ffffffff16565b6133a982601a546138f190919063ffffffff16565b601a81905550505b5050565b60006133f783836040518060400160405280601e81526020017f536166654d6174683a207375627472616374696f6e206f766572666c6f770000815250614726565b905092915050565b601e60009054906101000a900460ff16613481576040517f08c379a00000000000000000000000000000000000000000000000000000000081526004018080602001828103825260128152602001807f506f6f6c2069736e277420656e61626c6564000000000000000000000000000081525060200191505060405180910390fd5b60125482106134f8576040517f08c379a000000000000000000000000000000000000000000000000000000000815260040180806020018281038252600a8152602001807f6e6f206465706f7369740000000000000000000000000000000000000000000081525060200191505060405180910390fd5b6000600f600084815260200190815260200160002090508373ffffffffffffffffffffffffffffffffffffffff168160000160009054906101000a900473ffffffffffffffffffffffffffffffffffffffff1673ffffffffffffffffffffffffffffffffffffffff16146135d4576040517f08c379a00000000000000000000000000000000000000000000000000000000081526004018080602001828103825260098152602001807f6e6f74206f776e6572000000000000000000000000000000000000000000000081525060200191505060405180910390fd5b600015158160090160009054906101000a900460ff1615151461365f576040517f08c379a00000000000000000000000000000000000000000000000000000000081526004018080602001828103825260128152602001807f7769746864726177656420616c7265616479000000000000000000000000000081525060200191505060405180910390fd5b42816008015411156136d9576040517f08c379a000000000000000000000000000000000000000000000000000000000815260040180806020018281038252600c8152602001807f7374696c6c206c6f636b6564000000000000000000000000000000000000000081525060200191505060405180910390fd5b6136e383836147e6565b6136ec8361514f565b60018160090160006101000a81548160ff02191690831515021790555061375f8160010154601060008773ffffffffffffffffffffffffffffffffffffffff1673ffffffffffffffffffffffffffffffffffffffff168152602001908152602001600020546133b590919063ffffffff16565b601060008673ffffffffffffffffffffffffffffffffffffffff1673ffffffffffffffffffffffffffffffffffffffff168152602001908152602001600020819055506137bb8160010154600e546133b590919063ffffffff16565b600e819055508373ffffffffffffffffffffffffffffffffffffffff167f1b091269e929df55d64d6ea7e9cadbe4fb38dce5ccdc995767bc515030dbfbbf826001015485604051808381526020018281526020019250505060405180910390a250505050565b60008083141561383457600090506138a1565b600082840290508284828161384557fe5b041461389c576040517f08c379a0000000000000000000000000000000000000000000000000000000008152600401808060200182810382526021815260200180615b9d6021913960400191505060405180910390fd5b809150505b92915050565b60006138e983836040518060400160405280601a81526020017f536166654d6174683a206469766973696f6e206279207a65726f000000000000815250615342565b905092915050565b60008082840190508381101561396f576040517f08c379a000000000000000000000000000000000000000000000000000000000815260040180806020018281038252601b8152602001807f536166654d6174683a206164646974696f6e206f766572666c6f77000000000081525060200191505060405180910390fd5b8091505092915050565b600061398743601554615408565b905090565b613997601254614451565b6000613a68600660009054906101000a900473ffffffffffffffffffffffffffffffffffffffff1673ffffffffffffffffffffffffffffffffffffffff166318160ddd6040518163ffffffff1660e01b815260040160206040518083038186803b158015613a0457600080fd5b505afa158015613a18573d6000803e3d6000fd5b505050506040513d6020811015613a2e57600080fd5b8101908080519060200190929190505050613a5a670de0b6b3a76400008561382190919063ffffffff16565b6138a790919063ffffffff16565b90506015544310613a9357613a88601d54826138a790919063ffffffff16565b601681905550613af5565b6000613aaa436015546133b590919063ffffffff16565b90506000613ac36016548361382190919063ffffffff16565b9050613aec601d54613ade83866138f190919063ffffffff16565b6138a790919063ffffffff16565b60168190555050505b43601781905550613b11601d54436138f190919063ffffffff16565b6015819055507fcd8cc848595519a86dd1d1b2a306fe80c70459f3f6f2a87b08fe223e00cb9fee81836016546015546040518085815260200184815260200183815260200182815260200194505050505060405180910390a15050565b600080600160009054906101000a900473ffffffffffffffffffffffffffffffffffffffff1673ffffffffffffffffffffffffffffffffffffffff166323b872dd3330866040518463ffffffff1660e01b8152600401808473ffffffffffffffffffffffffffffffffffffffff1673ffffffffffffffffffffffffffffffffffffffff1681526020018373ffffffffffffffffffffffffffffffffffffffff1673ffffffffffffffffffffffffffffffffffffffff1681526020018281526020019350505050602060405180830381600087803b158015613c4e57600080fd5b505af1158015613c62573d6000803e3d6000fd5b505050506040513d6020811015613c7857600080fd5b8101908080519060200190929190505050506000600560009054906101000a900473ffffffffffffffffffffffffffffffffffffffff1673ffffffffffffffffffffffffffffffffffffffff166370a08231306040518263ffffffff1660e01b8152600401808273ffffffffffffffffffffffffffffffffffffffff1673ffffffffffffffffffffffffffffffffffffffff16815260200191505060206040518083038186803b158015613d2b57600080fd5b505afa158015613d3f573d6000803e3d6000fd5b505050506040513d6020811015613d5557600080fd5b810190808051906020019092919050505090506000600660009054906101000a900473ffffffffffffffffffffffffffffffffffffffff1673ffffffffffffffffffffffffffffffffffffffff166370a08231306040518263ffffffff1660e01b8152600401808273ffffffffffffffffffffffffffffffffffffffff1673ffffffffffffffffffffffffffffffffffffffff16815260200191505060206040518083038186803b158015613e0957600080fd5b505afa158015613e1d573d6000803e3d6000fd5b505050506040513d6020811015613e3357600080fd5b81019080805190602001909291905050509050600160009054906101000a900473ffffffffffffffffffffffffffffffffffffffff1673ffffffffffffffffffffffffffffffffffffffff1663a9059cbb600160009054906101000a900473ffffffffffffffffffffffffffffffffffffffff16876040518363ffffffff1660e01b8152600401808373ffffffffffffffffffffffffffffffffffffffff1673ffffffffffffffffffffffffffffffffffffffff16815260200182815260200192505050602060405180830381600087803b158015613f1157600080fd5b505af1158015613f25573d6000803e3d6000fd5b505050506040513d6020811015613f3b57600080fd5b810190808051906020019092919050505050600160009054906101000a900473ffffffffffffffffffffffffffffffffffffffff1673ffffffffffffffffffffffffffffffffffffffff166389afcb44306040518263ffffffff1660e01b8152600401808273ffffffffffffffffffffffffffffffffffffffff1673ffffffffffffffffffffffffffffffffffffffff1681526020019150506040805180830381600087803b158015613fed57600080fd5b505af1158015614001573d6000803e3d6000fd5b505050506040513d604081101561401757600080fd5b81019080805190602001909291908051906020019092919050505050506000600560009054906101000a900473ffffffffffffffffffffffffffffffffffffffff1673ffffffffffffffffffffffffffffffffffffffff166370a08231306040518263ffffffff1660e01b8152600401808273ffffffffffffffffffffffffffffffffffffffff1673ffffffffffffffffffffffffffffffffffffffff16815260200191505060206040518083038186803b1580156140d557600080fd5b505afa1580156140e9573d6000803e3d6000fd5b505050506040513d60208110156140ff57600080fd5b810190808051906020019092919050505090506000600660009054906101000a900473ffffffffffffffffffffffffffffffffffffffff1673ffffffffffffffffffffffffffffffffffffffff166370a08231306040518263ffffffff1660e01b8152600401808273ffffffffffffffffffffffffffffffffffffffff1673ffffffffffffffffffffffffffffffffffffffff16815260200191505060206040518083038186803b1580156141b357600080fd5b505afa1580156141c7573d6000803e3d6000fd5b505050506040513d60208110156141dd57600080fd5b8101908080519060200190929190505050905061420384836133b590919063ffffffff16565b955061421883826133b590919063ffffffff16565b945050505050915091565b60008061423b600c54426138f190919063ffffffff16565b9050600260009054906101000a900473ffffffffffffffffffffffffffffffffffffffff1673ffffffffffffffffffffffffffffffffffffffff1663e2bbb15884836040518363ffffffff1660e01b81526004018083815260200182815260200192505050600060405180830381600087803b1580156142ba57600080fd5b505af11580156142ce573d6000803e3d6000fd5b50505050600260009054906101000a900473ffffffffffffffffffffffffffffffffffffffff1673ffffffffffffffffffffffffffffffffffffffff1663f154240a6040518163ffffffff1660e01b815260040160206040518083038186803b15801561433a57600080fd5b505afa15801561434e573d6000803e3d6000fd5b505050506040513d602081101561436457600080fd5b81019080805190602001909291905050509150915091565b600061444c600660009054906101000a900473ffffffffffffffffffffffffffffffffffffffff1673ffffffffffffffffffffffffffffffffffffffff166318160ddd6040518163ffffffff1660e01b815260040160206040518083038186803b1580156143e957600080fd5b505afa1580156143fd573d6000803e3d6000fd5b505050506040513d602081101561441357600080fd5b810190808051906020019092919050505069d3c21bcecceda10000006000198161443957fe5b06600019036138a790919063ffffffff16565b905090565b6144596116b0565b601881905550614467613979565b6017819055506012548110156144b85761448081611380565b600f600083815260200190815260200160002060040181905550601854600f6000838152602001908152602001600020600501819055505b50565b6144c3615421565b600360009054906101000a900473ffffffffffffffffffffffffffffffffffffffff1673ffffffffffffffffffffffffffffffffffffffff1663a694fc3a826040518263ffffffff1660e01b815260040180828152602001915050600060405180830381600087803b15801561453857600080fd5b505af115801561454c573d6000803e3d6000fd5b5050505050565b600061455d615421565b6145c464e8d4a510006145b660116000868152602001908152602001600020546145a8600f600088815260200190815260200160002060070154601b5461382190919063ffffffff16565b6133b590919063ffffffff16565b6138a790919063ffffffff16565b9050600360009054906101000a900473ffffffffffffffffffffffffffffffffffffffff1673ffffffffffffffffffffffffffffffffffffffff16632e1a7d4d600f6000858152602001908152602001600020600701546040518263ffffffff1660e01b815260040180828152602001915050600060405180830381600087803b15801561465157600080fd5b505af1158015614665573d6000803e3d6000fd5b50505050919050565b6147218363a9059cbb60e01b8484604051602401808373ffffffffffffffffffffffffffffffffffffffff1673ffffffffffffffffffffffffffffffffffffffff16815260200182815260200192505050604051602081830303815290604052907bffffffffffffffffffffffffffffffffffffffffffffffffffffffff19166020820180517bffffffffffffffffffffffffffffffffffffffffffffffffffffffff8381831617835250505050615798565b505050565b60008383111582906147d3576040517f08c379a00000000000000000000000000000000000000000000000000000000081526004018080602001828103825283818151815260200191508051906020019080838360005b8381101561479857808201518184015260208101905061477d565b50505050905090810190601f1680156147c55780820380516001836020036101000a031916815260200191505b509250505060405180910390fd5b5060008385039050809150509392505050565b6000600f600084815260200190815260200160002090506000600560009054906101000a900473ffffffffffffffffffffffffffffffffffffffff1673ffffffffffffffffffffffffffffffffffffffff166370a08231306040518263ffffffff1660e01b8152600401808273ffffffffffffffffffffffffffffffffffffffff1673ffffffffffffffffffffffffffffffffffffffff16815260200191505060206040518083038186803b15801561489e57600080fd5b505afa1580156148b2573d6000803e3d6000fd5b505050506040513d60208110156148c857600080fd5b8101908080519060200190929190505050905060006148e685614553565b90506000600760009054906101000a900473ffffffffffffffffffffffffffffffffffffffff1673ffffffffffffffffffffffffffffffffffffffff166370a08231306040518263ffffffff1660e01b8152600401808273ffffffffffffffffffffffffffffffffffffffff1673ffffffffffffffffffffffffffffffffffffffff16815260200191505060206040518083038186803b15801561498957600080fd5b505afa15801561499d573d6000803e3d6000fd5b505050506040513d60208110156149b357600080fd5b81019080805190602001909291905050509050600260009054906101000a900473ffffffffffffffffffffffffffffffffffffffff1673ffffffffffffffffffffffffffffffffffffffff1663441a3e708560060154876040518363ffffffff1660e01b81526004018083815260200182815260200192505050600060405180830381600087803b158015614a4757600080fd5b505af1158015614a5b573d6000803e3d6000fd5b505050506000600760009054906101000a900473ffffffffffffffffffffffffffffffffffffffff1673ffffffffffffffffffffffffffffffffffffffff166370a08231306040518263ffffffff1660e01b8152600401808273ffffffffffffffffffffffffffffffffffffffff1673ffffffffffffffffffffffffffffffffffffffff16815260200191505060206040518083038186803b158015614b0057600080fd5b505afa158015614b14573d6000803e3d6000fd5b505050506040513d6020811015614b2a57600080fd5b810190808051906020019092919050505090506000600560009054906101000a900473ffffffffffffffffffffffffffffffffffffffff1673ffffffffffffffffffffffffffffffffffffffff166370a08231306040518263ffffffff1660e01b8152600401808273ffffffffffffffffffffffffffffffffffffffff1673ffffffffffffffffffffffffffffffffffffffff16815260200191505060206040518083038186803b158015614bde57600080fd5b505afa158015614bf2573d6000803e3d6000fd5b505050506040513d6020811015614c0857600080fd5b810190808051906020019092919050505090506000614c3086836133b590919063ffffffff16565b90506000614c5d8860020154614c4f88856138f190919063ffffffff16565b6133b590919063ffffffff16565b90506000614c8a86614c7c878c600701546138f190919063ffffffff16565b6133b590919063ffffffff16565b90506000614cb76103e8614ca96013548661382190919063ffffffff16565b6138a790919063ffffffff16565b90506000614ce46103e8614cd66013548661382190919063ffffffff16565b6138a790919063ffffffff16565b9050600560009054906101000a900473ffffffffffffffffffffffffffffffffffffffff1673ffffffffffffffffffffffffffffffffffffffff1663a9059cbb8c60000160009054906101000a900473ffffffffffffffffffffffffffffffffffffffff16614d72614d5f86896133b590919063ffffffff16565b8f600201546138f190919063ffffffff16565b6040518363ffffffff1660e01b8152600401808373ffffffffffffffffffffffffffffffffffffffff1673ffffffffffffffffffffffffffffffffffffffff16815260200182815260200192505050602060405180830381600087803b158015614ddb57600080fd5b505af1158015614def573d6000803e3d6000fd5b505050506040513d6020811015614e0557600080fd5b810190808051906020019092919050505050600760009054906101000a900473ffffffffffffffffffffffffffffffffffffffff1673ffffffffffffffffffffffffffffffffffffffff1663a9059cbb8c60000160009054906101000a900473ffffffffffffffffffffffffffffffffffffffff16614e8d84876133b590919063ffffffff16565b6040518363ffffffff1660e01b8152600401808373ffffffffffffffffffffffffffffffffffffffff1673ffffffffffffffffffffffffffffffffffffffff16815260200182815260200192505050602060405180830381600087803b158015614ef657600080fd5b505af1158015614f0a573d6000803e3d6000fd5b505050506040513d6020811015614f2057600080fd5b810190808051906020019092919050505050600560009054906101000a900473ffffffffffffffffffffffffffffffffffffffff1673ffffffffffffffffffffffffffffffffffffffff1663a9059cbb601460009054906101000a900473ffffffffffffffffffffffffffffffffffffffff16846040518363ffffffff1660e01b8152600401808373ffffffffffffffffffffffffffffffffffffffff1673ffffffffffffffffffffffffffffffffffffffff16815260200182815260200192505050602060405180830381600087803b158015614ffd57600080fd5b505af1158015615011573d6000803e3d6000fd5b505050506040513d602081101561502757600080fd5b810190808051906020019092919050505050600760009054906101000a900473ffffffffffffffffffffffffffffffffffffffff1673ffffffffffffffffffffffffffffffffffffffff1663a9059cbb601460009054906101000a900473ffffffffffffffffffffffffffffffffffffffff16836040518363ffffffff1660e01b8152600401808373ffffffffffffffffffffffffffffffffffffffff1673ffffffffffffffffffffffffffffffffffffffff16815260200182815260200192505050602060405180830381600087803b15801561510457600080fd5b505af1158015615118573d6000803e3d6000fd5b505050506040513d602081101561512e57600080fd5b81019080805190602001909291905050505050505050505050505050505050565b61515881614451565b600061516382611380565b9050600081111561533e576000600f600084815260200190815260200160002060040181905550600061525b670de0b6b3a764000061524d84600660009054906101000a900473ffffffffffffffffffffffffffffffffffffffff1673ffffffffffffffffffffffffffffffffffffffff166318160ddd6040518163ffffffff1660e01b815260040160206040518083038186803b15801561520457600080fd5b505afa158015615218573d6000803e3d6000fd5b505050506040513d602081101561522e57600080fd5b810190808051906020019092919050505061382190919063ffffffff16565b6138a790919063ffffffff16565b9050615321600f600085815260200190815260200160002060000160009054906101000a900473ffffffffffffffffffffffffffffffffffffffff166152d96152ca6152a561437c565b600f6000898152602001908152602001600020600301546138a790919063ffffffff16565b846138f190919063ffffffff16565b600660009054906101000a900473ffffffffffffffffffffffffffffffffffffffff1673ffffffffffffffffffffffffffffffffffffffff1661466e9092919063ffffffff16565b61533682601a546138f190919063ffffffff16565b601a81905550505b5050565b600080831182906153ee576040517f08c379a00000000000000000000000000000000000000000000000000000000081526004018080602001828103825283818151815260200191508051906020019080838360005b838110156153b3578082015181840152602081019050615398565b50505050905090810190601f1680156153e05780820380516001836020036101000a031916815260200191505b509250505060405180910390fd5b5060008385816153fa57fe5b049050809150509392505050565b60008183106154175781615419565b825b905092915050565b6000600560009054906101000a900473ffffffffffffffffffffffffffffffffffffffff1673ffffffffffffffffffffffffffffffffffffffff166370a08231306040518263ffffffff1660e01b8152600401808273ffffffffffffffffffffffffffffffffffffffff1673ffffffffffffffffffffffffffffffffffffffff16815260200191505060206040518083038186803b1580156154c257600080fd5b505afa1580156154d6573d6000803e3d6000fd5b505050506040513d60208110156154ec57600080fd5b81019080805190602001909291905050509050600360009054906101000a900473ffffffffffffffffffffffffffffffffffffffff1673ffffffffffffffffffffffffffffffffffffffff16633d18b9126040518163ffffffff1660e01b8152600401600060405180830381600087803b15801561556957600080fd5b505af115801561557d573d6000803e3d6000fd5b505050506000600560009054906101000a900473ffffffffffffffffffffffffffffffffffffffff1673ffffffffffffffffffffffffffffffffffffffff166370a08231306040518263ffffffff1660e01b8152600401808273ffffffffffffffffffffffffffffffffffffffff1673ffffffffffffffffffffffffffffffffffffffff16815260200191505060206040518083038186803b15801561562257600080fd5b505afa158015615636573d6000803e3d6000fd5b505050506040513d602081101561564c57600080fd5b81019080805190602001909291905050509050600061567483836133b590919063ffffffff16565b905061578d61577c600360009054906101000a900473ffffffffffffffffffffffffffffffffffffffff1673ffffffffffffffffffffffffffffffffffffffff166370a08231306040518263ffffffff1660e01b8152600401808273ffffffffffffffffffffffffffffffffffffffff1673ffffffffffffffffffffffffffffffffffffffff16815260200191505060206040518083038186803b15801561571b57600080fd5b505afa15801561572f573d6000803e3d6000fd5b505050506040513d602081101561574557600080fd5b810190808051906020019092919050505061576e64e8d4a510008561382190919063ffffffff16565b6138a790919063ffffffff16565b601b546138f190919063ffffffff16565b601b81905550505050565b60606157fa826040518060400160405280602081526020017f5361666545524332303a206c6f772d6c6576656c2063616c6c206661696c65648152508573ffffffffffffffffffffffffffffffffffffffff166158879092919063ffffffff16565b90506000815111156158825780806020019051602081101561581b57600080fd5b8101908080519060200190929190505050615881576040517f08c379a000000000000000000000000000000000000000000000000000000000815260040180806020018281038252602a815260200180615bbe602a913960400191505060405180910390fd5b5b505050565b6060615896848460008561589f565b90509392505050565b6060824710156158fa576040517f08c379a0000000000000000000000000000000000000000000000000000000008152600401808060200182810382526026815260200180615b776026913960400191505060405180910390fd5b61590385615a48565b615975576040517f08c379a000000000000000000000000000000000000000000000000000000000815260040180806020018281038252601d8152602001807f416464726573733a2063616c6c20746f206e6f6e2d636f6e747261637400000081525060200191505060405180910390fd5b600060608673ffffffffffffffffffffffffffffffffffffffff1685876040518082805190602001908083835b602083106159c557805182526020820191506020810190506020830392506159a2565b6001836020036101000a03801982511681845116808217855250505050505090500191505060006040518083038185875af1925050503d8060008114615a27576040519150601f19603f3d011682016040523d82523d6000602084013e615a2c565b606091505b5091509150615a3c828286615a5b565b92505050949350505050565b600080823b905060008111915050919050565b60608315615a6b57829050615b20565b600083511115615a7e5782518084602001fd5b816040517f08c379a00000000000000000000000000000000000000000000000000000000081526004018080602001828103825283818151815260200191508051906020019080838360005b83811015615ae5578082015181840152602081019050615aca565b50505050905090810190601f168015615b125780820380516001836020036101000a031916815260200191505b509250505060405180910390fd5b939250505056fe4f776e61626c653a206e6577206f776e657220697320746865207a65726f20616464726573734f6e6c792064656261736520706f6c69637920636f6e74726163742063616e2063616c6c2074686973416464726573733a20696e73756666696369656e742062616c616e636520666f722063616c6c536166654d6174683a206d756c7469706c69636174696f6e206f766572666c6f775361666545524332303a204552433230206f7065726174696f6e20646964206e6f742073756363656564a26469706673582212202fcc8f68c2e63f606f029af2affeb33b23e2fc935851c9a4b4481f3f2fa878b164736f6c63430006060033",
  "immutableReferences": {},
  "source": "pragma solidity >=0.6.6;\n\nimport \"@openzeppelin/contracts/math/SafeMath.sol\";\nimport \"@openzeppelin/contracts/access/Ownable.sol\";\nimport \"@openzeppelin/contracts/math/Math.sol\";\nimport \"@openzeppelin/contracts/token/ERC20/IERC20.sol\";\nimport \"@openzeppelin/contracts/token/ERC20/SafeERC20.sol\";\nimport \"./interfaces/IUniswapV2Pair.sol\";\nimport \"./interfaces/IDInterest.sol\";\nimport \"./interfaces/IReward.sol\";\nimport \"./interfaces/IVesting.sol\";\n\ncontract DaiLpPool is Ownable {\n    using SafeMath for uint256;\n    using SafeERC20 for IERC20;\n\n    event onDeposit(address indexed user, uint256 amount, uint256 maturationTimestamp, uint256 depositId);\n    event onWithdraw(address indexed user, uint256 amount, uint256 depositId);\n    event onEmergencyWithdraw(address indexed user, uint256 amount, uint256 depositId);\n\n    event LogSetDebaseRewardPercentage(uint256 debaseRewardPercentage_);\n    event LogDebaseRewardIssued(uint256 rewardIssued, uint256 rewardsFinishBy);\n    event LogSetBlockDuration(uint256 duration_);\n    event LogSetPoolEnabled(bool poolEnabled_);\n    event LogStartNewDistribtionCycle(\n        uint256 poolShareAdded_,\n        uint256 amount_,\n        uint256 rewardRate_,\n        uint256 periodFinish_\n    );\n\n    struct DepositInfo {\n        address owner;\n        uint256 amount;\n        uint256 daiAmount;\n        uint256 debaseGonAmount;\n        uint256 debaseReward;\n        uint256 debaseRewardPerTokenPaid;\n        uint256 daiDepositId;\n        uint256 mphReward;\n        uint256 maturationTimestamp;\n        bool withdrawed;\n    }\n\n    uint256 private constant MAX_UINT256 = ~uint256(0);\n    uint256 private constant INITIAL_FRAGMENTS_SUPPLY = 1000000 * 10**18;\n    uint256 private constant TOTAL_GONS = MAX_UINT256 - (MAX_UINT256 % INITIAL_FRAGMENTS_SUPPLY);\n\n    IUniswapV2Pair public debaseDaiPair;\n    IDInterest public daiFixedPool;\n    IReward public mphStakePool;\n    IVesting public mphVesting;\n    IERC20 public dai;\n    IERC20 public debase;\n    IERC20 public mph;\n    address public policy;\n\n    uint256 public lpLimit;\n    uint256 public maxDepositLimit;\n    uint256 public totalLpLimit;\n    uint256 public lockPeriod;\n    bool public totalLpLimitEnabled;\n    bool public maxDepositLimitEnabled;\n\n    uint256 public totalLpLocked;\n\n    mapping (uint256 => DepositInfo) public deposits;\n    mapping (address => uint256) public lpDeposits;\n    mapping (uint256 => uint256) daiOffsetForMphStaking;   // DAI reward offset, times 1e12.\n    uint256 depositLength;\n    uint256 fee;\n    address treasury;\n\n    uint256 public periodFinish;\n    uint256 public debaseRewardRate;\n    uint256 public lastUpdateBlock;\n    uint256 public debaseRewardPerTokenStored;\n    uint256 public debaseRewardPercentage;\n    uint256 public debaseRewardDistributed;\n    uint256 public accDaiPerMph;    // Accumulated DAI reward per staked mph, times 1e12.\n    uint256 firstVestIdx;\n\n    // params for debase reward\n    uint256 public blockDuration;\n    bool public poolEnabled;\n    bool public allowEmergencyWithdraw;\n\n    modifier enabled() {\n        require(poolEnabled, \"Pool isn't enabled\");\n        _;\n    }\n\n    function _updateDebaseReward(uint256 depositId) internal {\n        debaseRewardPerTokenStored = debaseRewardPerToken();\n        lastUpdateBlock = lastBlockRewardApplicable();\n        if (depositId < depositLength) {\n            deposits[depositId].debaseReward = earned(depositId);\n            deposits[depositId].debaseRewardPerTokenPaid = debaseRewardPerTokenStored;\n        }\n    }\n\n    constructor(\n        IUniswapV2Pair _debaseDaiPair,\n        IERC20 _dai,\n        IERC20 _debase,\n        IERC20 _mph,\n        address _policy,\n        IDInterest _daiFixedPool,\n        IReward _mphStakePool,\n        IVesting _mphVesting,\n        uint256 _lockPeriod,\n        uint256 _fee,\n        address _treasury,\n        uint256 _debaseRewardPercentage,\n        uint256 _blockDuration\n    ) public Ownable() {\n        require (_treasury != address(0), 'Invalid addr');\n        debaseDaiPair = _debaseDaiPair;\n        dai = _dai;\n        debase = _debase;\n        mph = _mph;\n        policy = _policy;\n        daiFixedPool = _daiFixedPool;\n        mphStakePool = _mphStakePool;\n        mphVesting = _mphVesting;\n        lockPeriod= _lockPeriod;\n        fee = _fee;\n        treasury = _treasury;\n        debaseRewardPercentage = _debaseRewardPercentage;\n        blockDuration = _blockDuration;\n    }\n\n    function _depositLpToken(uint256 amount) internal returns (uint256 daiAmount, uint256 debaseAmount) {\n        debaseDaiPair.transferFrom(msg.sender, address(this), amount);\n        uint daiOldBalance = dai.balanceOf(address(this));\n        uint debaseOldBalance = debase.balanceOf(address(this));\n        debaseDaiPair.transfer(address(debaseDaiPair), amount);\n        debaseDaiPair.burn(address(this));\n        uint daiBalance = dai.balanceOf(address(this));\n        uint debaseBalance = debase.balanceOf(address(this));\n\n        daiAmount = daiBalance.sub(daiOldBalance);\n        debaseAmount = debaseBalance.sub(debaseOldBalance);\n    }\n\n    function _depositDai(uint daiAmount) internal returns (uint256 daiDepositId, uint256 maturationTimestamp) {\n        maturationTimestamp = block.timestamp.add(lockPeriod);\n        daiFixedPool.deposit(daiAmount, maturationTimestamp);\n        daiDepositId = daiFixedPool.depositsLength();\n    }\n\n    function _updateMphReward() internal {\n        uint daiOldBalance = dai.balanceOf(address(this));\n        mphStakePool.getReward();\n        uint daiBalance = dai.balanceOf(address(this));\n        uint daiReward = daiBalance.sub(daiOldBalance);\n        accDaiPerMph = accDaiPerMph\n            .add(daiReward.mul(1e12)\n            .div(mphStakePool.balanceOf(address(this))));\n    }\n\n    function _stakeMph(uint mphReward) internal {\n        _updateMphReward();\n        mphStakePool.stake(mphReward);\n    }\n\n    function _unstakeMph(uint depositId) internal returns (uint daiReward) {\n        _updateMphReward();\n        daiReward = accDaiPerMph\n            .mul(deposits[depositId].mphReward)\n            .sub(daiOffsetForMphStaking[depositId])\n            .div(1e12);\n        mphStakePool.withdraw(deposits[depositId].mphReward);\n    }\n\n    function _withdrawMphVested() internal {\n        uint256 totalMphVested = 0;\n        for (uint256 depositId = firstVestIdx; depositId < depositLength; depositId += 1) {\n            uint256 vested = mphVesting.withdrawVested(address(this), depositId);\n            if (vested > 0) {\n                totalMphVested = totalMphVested.add(vested);\n                deposits[depositId].mphReward = deposits[depositId].mphReward.add(vested);\n                daiOffsetForMphStaking[depositId] = daiOffsetForMphStaking[depositId].add(accDaiPerMph.mul(vested));\n            }\n            if (block.timestamp >= deposits[depositId].maturationTimestamp) {\n                firstVestIdx = depositId.add(1);\n            }\n        }\n        if (totalMphVested > 0) {\n            _stakeMph(totalMphVested);\n        }\n    }\n\n    function deposit(uint256 amount)\n        external\n        enabled\n        returns (uint256)\n    {\n        require(totalLpLimitEnabled == false || totalLpLocked.add(amount) <= totalLpLimit, 'To much lp locked');\n        require(maxDepositLimitEnabled == false || lpDeposits[msg.sender].add(amount) <= maxDepositLimit, 'to much deposit for this user');\n\n        (uint daiAmount, uint debaseAmount) = _depositLpToken(amount);\n        (uint daiDepositId, uint maturationTimestamp) = _depositDai(daiAmount);\n\n        lpDeposits[msg.sender] = lpDeposits[msg.sender].add(amount);\n        totalLpLocked = totalLpLocked.add(amount);\n\n        _withdrawMphVested();\n\n        deposits[depositLength] = DepositInfo({\n            owner: msg.sender,\n            amount: amount,\n            daiAmount: daiAmount,\n            debaseGonAmount: debaseAmount.mul(_gonsPerFragment()),\n            debaseReward: 0,\n            debaseRewardPerTokenPaid: 0,\n            daiDepositId: daiDepositId,\n            maturationTimestamp: maturationTimestamp,\n            mphReward: 0,\n            withdrawed: false\n        });\n        depositLength = depositLength.add(1);\n\n        _updateDebaseReward(daiDepositId);\n        emit onDeposit(msg.sender, amount, maturationTimestamp, depositLength.sub(1));\n        return depositLength.sub(1);\n    }\n\n    function _gonsPerFragment() internal view returns (uint256) {\n        return TOTAL_GONS.div(debase.totalSupply());\n    }\n\n    function _withdrawDai(uint256 depositId, uint256 fundingId) internal {\n        DepositInfo storage depositInfo = deposits[depositId];\n\n        uint daiOldBalance = dai.balanceOf(address(this));\n        uint mphStakingDaiReward = _unstakeMph(depositId);\n\n        uint mphOldBalance = mph.balanceOf(address(this));\n        daiFixedPool.withdraw(depositInfo.daiDepositId, fundingId);\n        uint mphBalance = mph.balanceOf(address(this));\n\n        uint daiBalance = dai.balanceOf(address(this));\n        uint daiAmount = daiBalance.sub(daiOldBalance);\n        uint totalDaiReward = daiAmount.add(mphStakingDaiReward).sub(depositInfo.daiAmount);\n\n        uint mphReward = depositInfo.mphReward.add(mphBalance).sub(mphOldBalance);\n        uint daiFee = totalDaiReward.mul(fee).div(1000);\n        uint mphFee = mphReward.mul(fee).div(1000);\n\n        dai.transfer(depositInfo.owner, depositInfo.daiAmount.add(totalDaiReward.sub(daiFee)));\n        mph.transfer(depositInfo.owner, mphReward.sub(mphFee));\n\n        dai.transfer(treasury, daiFee);\n        mph.transfer(treasury, mphFee);\n    }\n\n    function _emergencyWithdrawDai(uint256 depositId, uint256 fundingId) internal {\n        DepositInfo storage depositInfo = deposits[depositId];\n\n        uint mphStakingDaiReward = _unstakeMph(depositId);\n        daiFixedPool.earlyWithdraw(depositInfo.daiDepositId, fundingId);\n        dai.transfer(depositInfo.owner, depositInfo.daiAmount);\n        dai.transfer(treasury, mphStakingDaiReward);\n    }\n\n    function _withdraw(address user, uint256 depositId, uint256 fundingId)\n        internal\n        enabled\n    {\n        require (depositId < depositLength, 'no deposit');\n        DepositInfo storage depositInfo = deposits[depositId];\n        require (depositInfo.owner == user, 'not owner');\n        require (depositInfo.withdrawed == false, 'withdrawed already');\n        require (depositInfo.maturationTimestamp <= block.timestamp, 'still locked');\n\n        _withdrawDai(depositId, fundingId);\n        _withdrawDebase(depositId);\n        depositInfo.withdrawed = true;\n        lpDeposits[user] = lpDeposits[user].sub(depositInfo.amount);\n        totalLpLocked = totalLpLocked.sub(depositInfo.amount);\n\n        emit onWithdraw(user, depositInfo.amount, depositId);\n    }\n\n    function withdraw(uint256 depositId, uint256 fundingId) external\n    {\n        _withdrawMphVested();\n        _withdraw(msg.sender, depositId, fundingId);\n    }\n\n    function multiWithdraw(uint256[] calldata depositIds, uint256[] calldata fundingIds) external {\n        require(depositIds.length == fundingIds.length, 'incorrect length');\n        _withdrawMphVested();\n        for (uint256 i = 0; i < depositIds.length; i += 1) {\n            _withdraw(msg.sender, depositIds[i], fundingIds[i]);\n        }\n    }\n\n    function emergencyWithdraw(uint256 depositId, uint256 fundingId) external enabled {\n        require(allowEmergencyWithdraw, 'emergency withdraw disabled');\n        require (depositId < depositLength, 'no deposit');\n        _withdrawMphVested();\n        DepositInfo storage depositInfo = deposits[depositId];\n        require (depositInfo.owner == msg.sender, 'not owner');\n        require (depositInfo.withdrawed == false, 'withdrawed already');\n\n        _emergencyWithdrawDai(depositId, fundingId);\n        _emergencyWithdrawDebase(depositId);\n        depositInfo.withdrawed = true;\n        lpDeposits[msg.sender] = lpDeposits[msg.sender].sub(depositInfo.amount);\n        totalLpLocked = totalLpLocked.sub(depositInfo.amount);\n\n        emit onEmergencyWithdraw(msg.sender, depositInfo.amount, depositId);\n    }\n\n    /**\n     * @notice Function to set how much reward the stabilizer will request\n     */\n    function setRewardPercentage(uint256 debaseRewardPercentage_) external onlyOwner {\n        debaseRewardPercentage = debaseRewardPercentage_;\n        emit LogSetDebaseRewardPercentage(debaseRewardPercentage);\n    }\n\n    /**\n     * @notice Function to set reward drop period\n     */\n    function setBlockDuration(uint256 blockDuration_) external onlyOwner {\n        require(blockDuration >= 1);\n        blockDuration = blockDuration_;\n        emit LogSetBlockDuration(blockDuration);\n    }\n\n    /**\n     * @notice Function enabled or disable pool staking,withdraw\n     */\n    function setPoolEnabled(bool poolEnabled_) external onlyOwner {\n        poolEnabled = poolEnabled_;\n        emit LogSetPoolEnabled(poolEnabled);\n    }\n\n    function setFee(uint256 _fee) external onlyOwner {\n        fee = _fee;\n    }\n\n    function setTreasury(address _treasury) external onlyOwner {\n        require (_treasury != address(0), 'Invalid addr');\n        treasury = _treasury;\n    }\n\n    function setLpLimit(uint256 _lpLimit) external onlyOwner {\n        lpLimit = _lpLimit;\n    }\n\n    function setMaxDepositLimit(uint256 _maxDepositLimit) external onlyOwner {\n        maxDepositLimit = _maxDepositLimit;\n    }\n\n    function setTotalLpLimit(uint256 _totalLpLimit) external onlyOwner {\n        totalLpLimit = _totalLpLimit;\n    }\n\n    function setTotalLpLimitEnabled(bool _totalLpLimitEnabled) external onlyOwner {\n        totalLpLimitEnabled = _totalLpLimitEnabled;\n    }\n\n    function setMaxDepositLimitEnabled(bool _maxDepositLimitEnabled) external onlyOwner {\n        maxDepositLimitEnabled = _maxDepositLimitEnabled;\n    }\n\n    function setLockPeriod(uint256 _lockPeriod) external onlyOwner {\n        require (_lockPeriod > 0, 'invalid lock period');\n        lockPeriod = _lockPeriod;\n    }\n\n    function setAllowEmergencyWithdraw(bool _allowEmergencyWithdraw) external onlyOwner {\n        allowEmergencyWithdraw = _allowEmergencyWithdraw;\n    }\n\n    function lastBlockRewardApplicable() internal view returns (uint256) {\n        return Math.min(block.number, periodFinish);\n    }\n\n    function debaseRewardPerToken() public view returns (uint256) {\n        if (totalLpLocked == 0) {\n            return debaseRewardPerTokenStored;\n        }\n        return\n            debaseRewardPerTokenStored.add(\n                lastBlockRewardApplicable()\n                    .sub(lastUpdateBlock)\n                    .mul(debaseRewardRate)\n                    .mul(10**18)\n                    .div(totalLpLocked)\n            );\n    }\n\n    function earned(uint256 depositId) public view returns (uint256) {\n        require (depositId < depositLength, 'no deposit');\n        return\n            deposits[depositId].amount\n                .mul(debaseRewardPerToken().sub(deposits[depositId].debaseRewardPerTokenPaid))\n                .div(10**18)\n                .add(deposits[depositId].debaseReward);\n    }\n\n    function _withdrawDebase(uint256 depositId) internal {\n        _updateDebaseReward(depositId);\n        uint256 reward = earned(depositId);\n        if (reward > 0) {\n            deposits[depositId].debaseReward = 0;\n\n            uint256 rewardToClaim =\n                debase.totalSupply().mul(reward).div(10**18);\n\n            debase.safeTransfer(deposits[depositId].owner, rewardToClaim.add(deposits[depositId].debaseGonAmount.div(_gonsPerFragment())));\n            debaseRewardDistributed = debaseRewardDistributed.add(reward);\n        }\n    }\n\n    function _emergencyWithdrawDebase(uint256 depositId) internal {\n        _updateDebaseReward(depositId);\n        uint256 reward = earned(depositId);\n        if (reward > 0) {\n            deposits[depositId].debaseReward = 0;\n\n            uint256 rewardToClaim =\n                debase.totalSupply().mul(reward).div(10**18);\n\n            debase.safeTransfer(deposits[depositId].owner, deposits[depositId].debaseGonAmount.div(_gonsPerFragment()));\n            debase.safeTransfer(treasury, rewardToClaim);\n            debaseRewardDistributed = debaseRewardDistributed.add(reward);\n        }\n    }\n\n    function checkStabilizerAndGetReward(\n        int256 supplyDelta_,\n        int256 rebaseLag_,\n        uint256 exchangeRate_,\n        uint256 debasePolicyBalance\n    ) external returns (uint256 rewardAmount_) {\n        require(\n            msg.sender == policy,\n            \"Only debase policy contract can call this\"\n        );\n\n        if (block.number > periodFinish) {\n            uint256 rewardToClaim =\n                debasePolicyBalance.mul(debaseRewardPercentage).div(10**18);\n\n            if (debasePolicyBalance >= rewardToClaim) {\n                startNewDistribtionCycle(rewardToClaim);\n                return rewardToClaim;\n            }\n        }\n        return 0;\n    }\n\n    function startNewDistribtionCycle(uint256 amount) internal\n    {\n        _updateDebaseReward(depositLength);\n        uint256 poolTotalShare = amount.mul(10**18).div(debase.totalSupply());\n\n        if (block.number >= periodFinish) {\n            debaseRewardRate = poolTotalShare.div(blockDuration);\n        } else {\n            uint256 remaining = periodFinish.sub(block.number);\n            uint256 leftover = remaining.mul(debaseRewardRate);\n            debaseRewardRate = poolTotalShare.add(leftover).div(blockDuration);\n        }\n        lastUpdateBlock = block.number;\n        periodFinish = block.number.add(blockDuration);\n\n        emit LogStartNewDistribtionCycle(\n            poolTotalShare,\n            amount,\n            debaseRewardRate,\n            periodFinish\n        );\n    }\n}\n",
  "sourcePath": "/Volumes/Work/Defi/Debase/debase-contracts/contracts/DaiLpPool.sol",
  "compiler": {
    "name": "solc",
    "version": "0.6.6+commit.6c089d02.Emscripten.clang"
  },
  "schemaVersion": "3.3.3",
  "updatedAt": "2021-01-08T13:53:46.656Z",
  "devdoc": {
    "methods": {
      "owner()": {
        "details": "Returns the address of the current owner."
      },
      "renounceOwnership()": {
        "details": "Leaves the contract without owner. It will not be possible to call `onlyOwner` functions anymore. Can only be called by the current owner.     * NOTE: Renouncing ownership will leave the contract without an owner, thereby removing any functionality that is only available to the owner."
      },
      "transferOwnership(address)": {
        "details": "Transfers ownership of the contract to a new account (`newOwner`). Can only be called by the current owner."
      }
    }
  },
  "userdoc": {
    "methods": {
      "setBlockDuration(uint256)": {
        "notice": "Function to set reward drop period"
      },
      "setPoolEnabled(bool)": {
        "notice": "Function enabled or disable pool staking,withdraw"
      },
      "setRewardPercentage(uint256)": {
        "notice": "Function to set how much reward the stabilizer will request"
      }
    }
  }
}